:020000002A28AC
:10000600FF308316031392000C30831297000430DE
:08001600920083160711080097
:10001E00831203132208F000F00CF013F00CF0130F
:10002E007008950002302205F000701820289712F3
:10003E002128971601302205F00070182828171273
:06004E0029281716080026
:10005400831603138701860103208312A2010F2054
:10006400071487108030A2000F201530FB004B309E
:10007400FC00BE30FD00FD0B3D28FC0B3D28FB0BB6
:100084003D28000007108714C030A2000F2015304F
:10009400FB004B30FC00BE30FD00FD0B4F28FC0B79
:1000A4004F28FB0B4F28000007108710A2010F20D8
:1000B4001530FB004B30FC00BE30FD00FD0B60280A
:0E00C400FC0B6028FB0B602800003228682827
:02400E004A2F37
:00000001FF
