:02000000C32813
:0E000600213083120313FD00FD0B07280800B4
:100014000F3083120313FC004730FD00FD0B102842
:0A002400FC0B10280000000008008B
:06002E00000000000800C4
:0E0034008312031364088A0063088200080028
:1000420083120313E61B2728861128288615661BB0
:100052002C2806112D280615E61A3128861032287A
:100062008614661A362806103728061462183B28AA
:1000720006163C280612861617208612E619432811
:10008200861144288615661948280611492806153E
:10009200E6184D2886104E28861466185228061037
:1000A2005328061462185728061658280612861670
:1000B20017208612621C5F280A206028032008008D
:1000C2008316031386120612061086100611861175
:1000D20083128612061286110611861006100A2055
:1000E2000A200A20861406148616172086120A2071
:1000F2008616172086120A208616172086120A20D4
:1001020006108616172086120A20861617208612D7
:10011200861086158616172086120A208611061466
:1001220086161720861206108616172086120A20B7
:1001320086161720861206148616172086120A20A3
:1001420006108616172086128615061586140614C2
:0C0152008616172086120A20621408008E
:10015E008312031362106508E60021206214080062
:10016E001A208A110A128000840AE30A0319E40A8B
:08017E00F003031DB72808007F
:100186006E21FF308316031387008601FF30880037
:1001960061200130E600212060081F3C0318D728A3
:1001A6000130E6002120E00140300805F100710829
:1001B600403A031DF5286008103A031DE528C030B3
:1001C600E60021206108203E84000008E500AF20FB
:1001D600E00AE10140300805F1007108403A031DCC
:1001E600F528ED2801300705F1007108013A031DD5
:1001F600FD28611402300705F1007108023A031D5B
:100206000529E11404300705F1007108043A031DBD
:100216000D29611508300705F1007108083A031D1C
:100226001529E11510300705F1007108103A031D74
:100236001D29611620300705F1007108203A031DBB
:080246002529E116CF28262925
:1002DC0020308400423083120313F0002C30E300F2
:0802EC000130E400B720080016
:100258002034613462346B346C346334693466340A
:100268006534683464346A346D346E346F34703491
:100278007134723473347434753476347734783432
:1002880069347A34733432346A34773474343634B3
:10029800613438346B34753465342C346F347A34C3
:1002A80062343B346C3476346834233472342A3400
:1002B800633420346D347834643420346E347934C3
:1002C8006634203470342034673420347134203458
:0202D8000034F0
:0202DA000034EE
:02400E004A2F37
:00000001FF
