:02000000C32813
:0E000600213083120313FD00FD0B07280800B4
:100014000F3083120313FC004730FD00FD0B102842
:0A002400FC0B10280000000008008B
:06002E00000000000800C4
:0E0034008312031364088A0063088200080028
:1000420083120313E61B2728861128288615661BB0
:100052002C2806112D280615E61A3128861032287A
:100062008614661A362806103728061462183B28AA
:1000720006163C280612861617208612E619432811
:10008200861144288615661948280611492806153E
:10009200E6184D2886104E28861466185228061037
:1000A2005328061462185728061658280612861670
:1000B20017208612621C5F280A206028032008008D
:1000C2008316031386120612061086100611861175
:1000D20083128612061286110611861006100A2055
:1000E2000A200A20861406148616172086120A2071
:1000F2008616172086120A208616172086120A20D4
:1001020006108616172086120A20861617208612D7
:10011200861086158616172086120A208611061466
:1001220086161720861206108616172086120A20B7
:1001320086161720861206148616172086120A20A3
:1001420006108616172086128615061586140614C2
:0C0152008616172086120A20621408008E
:10015E008312031362106508E60021206214080062
:10016E001A208A110A128000840AE30A0319E40A8B
:08017E00F003031DB72808007F
:100186007421FF3083160313880086016120013035
:10019600E600212060081F3C0318D5280130E60040
:1001A6002120E00140300805F1007108403A031DA6
:1001B600F3286008103A031DE328C030E60021202A
:1001C6006108203E84000008E500AF20E00AE10156
:1001D60040300805F1007108403A031DF328EB286A
:1001E60001300805F1007108013A031DFB2861146E
:1001F60002300805F1007108023A031D0329E114D3
:1002060004300805F1007108043A031D0B29611535
:1002160008300805F1007108083A031D1329E11595
:1002260010300805F1007108103A031D1B296116EC
:1002360020300805F1007108203A031D2329E11634
:1002460080300805F1007108803A031D2B29E10171
:04025600CD282C295A
:1002E80020308400423083120313F0003230E300E0
:0802F8000130E400B72008000A
:1002640020342134213421342134213421343134D3
:1002740021342134213421342134213421343134C2
:1002840021342134213421342134213421343134B2
:1002940069342134733421346A3477347434213426
:1002A400613421346B347534653421346F347A34D9
:1002B400623421346C347634683421347234213419
:1002C400633421346D347834643421346E347934B5
:1002D4006634213470342134673421347134213448
:0202E4000034E4
:0202E6000034E2
:02400E004A2F37
:00000001FF
