:02000000C52811
:10000800FF00030E8301B8000A08B9008A017008CE
:10001800A6007108A5007408A4007508A300780854
:10002800A2007908A1007C08A000B10A3108103AA2
:10003800031D3A28B1018B2070088312B60071089D
:10004800B700700886007108F200F3017208870093
:100058003230F4000030F5009A20FF30F40003300D
:10006800F50064207008B2007108B300FB308B05FE
:100078002608F0002508F1002408F4002308F500FC
:100088002208F8002108F9002008FC0039088A0035
:0A009800380E8300FF0E7F0E0900F2
:0E00A2008312031335088A0034088200080018
:1000B00051208A110A128000840AB40A0319B50A71
:0800C000F003031D582808009D
:1000C80083120313F801F9011030FC00710DF80DCB
:1000D800F90D7408F8027508031C750FF902031866
:1000E8007C287408F80775080318750FF9070310BA
:0A00F800F00DF10DFC0B6A28080062
:100102004130831203139F00CE3083169F000130CB
:04011200850008005C
:10011600831203131F151F1D91288E281E08F10038
:0E012600F00183161E08F0040030F1040800FA
:1001340083120313FB01FA01F9018030F800F10C7A
:10014400F00C031CAE287408F90775080318750F22
:10015400FA070318FB0A0310F01FB6287408FA07FD
:1001640075080318750FFB07FB0CFA0CF90CF80C57
:10017400031CA1287B08F3007A08F2007908F10037
:060184007808F0000800FD
:10018A003F3083120313A7000630A8005B30A90092
:10019A004F30AA006630AB006D30AC007D30AD0048
:1001AA000730AE007F30AF006F30B0008316860193
:1001BA0087018801812007308100A0308B008312DB
:1001CA0081010D30FC00FB30FD00FD0BEA28FC0B21
:1001DA00EA2800000000043085000A30F4000030EC
:1001EA00F5003208F0003308F10064207808F000C6
:1001FA007908F1007008273E8400000888000D3055
:10020A00FC00FB30FD00FD0B0829FC0B082900004F
:10021A000000083085000A30F4000030F50032088A
:10022A00F0003308F10064207008273E8400803013
:08023A0000048800E6282029D9
:02400E004A2F37
:00000001FF
