:02000000E529F0
:0E000600213083120313FD00FD0B07280800B4
:06001400000000000800DE
:10001A000F3083120313FC004730FD00FD0B132839
:0A002A00FC0B132800000000080082
:1000340083120313BC1B20288611212886153C1B20
:100044002528061126280615BC1A2A2886102B28CE
:1000540086143C1A2F280610302806142818342831
:1000640006163528061286160A208612BC193C2864
:1000740086113D2886153C1941280611422806158B
:10008400BC1846288610472886143C184B280610AE
:100094004C280614281850280616512806128616CD
:1000A4000A208612281C58280D20592803200800ED
:1000B4008312031328103B08BC001A2028140800DC
:1000C40083120313F8010830FC00700DF80D740856
:1000D400F80203186F28F8070310F00DFC0B6728CB
:0200E400080012
:1000E600831203131F151F1D792876281E08F10099
:0E00F600F00183161E08F0040030F10408002B
:100104008316031386120612061086100611861132
:1001140083128612061286110611861006100D200F
:100124000D200D208614061486160A2086120D2032
:1001340086160A2086120D2086160A2086120D20A5
:10014400061086160A2086120D2086160A208612AC
:100154008610861586160A2086120D20861106142E
:1001640086160A208612061086160A2086120D208C
:1001740086160A208612061486160A2086120D2078
:10018400061086160A20861286150615861406148D
:0C01940086160A2086120D202814080090
:1001A00083120313B801B9012C08003A031DE0289B
:1001B0002D088400303080002D0A8400800135290C
:1001C0002C08003C0318FF2838082E3EBA000A30DD
:1001D000F4002C08F00062207808F0003030F007BE
:1001E0003A08840070088000B80A0319B90A0A3076
:1001F000F4002C08F00062207008AC00E0283808F9
:100200002E3E840080013808B6003908B700B401DA
:10021000B50180303506F000803037067002031DCE
:100220001329360834020318312934082D07F20047
:1002300034083602F0003508031C013E3702F10095
:100240000130F002031CF10370082E3E8400000808
:10025000F0007208840070088000B40A0319B50A1F
:0C026000092936082D07840080010800E1
:10026C0083120313FB01FA01F9018030F800F10C41
:10027C00F00C031C4A297408F90775080318750F4C
:10028C00FA070318FB0A0310F01F52297408FA0727
:10029C0075080318750FFB07FB0CFA0CF90CF80C1E
:1002AC00031C3D297B08F3007A08F2007908F10061
:0602BC007808F0000800C4
:1002C20083120313F801F9011030FC00710DF80DCF
:1002D200F90D7408F8027508031C750FF90203186A
:1002E20079297408F80775080318750FF9070310C0
:0A02F200F00DF10DFC0B6729080068
:0A02FC00831203132C08950008007C
:100306009529803083120313AC00A829C030AC00B5
:10031600A8299430AC00A829D430AC00A829803094
:10032600AC00A829831203132C08013A0319842967
:100336002C08023A031989292C08033A03198C2937
:100346002C08043A03198F2992292D03F0002C0852
:10035600F0077008AC007008BC001A202810AF0126
:100366002F082E07840000080319C1292F082E071D
:1003760084000008BB005A20AF0AB32928140800DD
:0A038600831203132C089B000800EB
:100390004130831203139F00CE3083169F0001303B
:0403A00085000800CC
:1003A40007308312031392000C3097000C309D0029
:1003B400FA3083169200603087007D3083129500F6
:0603C4007D309B000800E3
:1003CA0083160313860182200130BC001A200C30E8
:1003DA00BC001A20C82160308700D221E730870587
:1003EA00871EF92918308704071FFD29E73087057A
:1003FA00732070088312AA007108AB000530F4005C
:10040A000030F5003621FF30F4000330F500612199
:10041A007008AC002030AD00D0200130AC000130B3
:10042A00AD002030AE0083212A08AC002030AD0098
:10043A00D0200230AC000130AD002030AE00832164
:10044A002A08F0002B08F100F10CF00CF113F10C62
:10045A00F00CF113FA30F400F5013621FF30F40004
:10046A00F50161217008A9007008AC002030AD00C8
:10047A00D0200230AC000930AD002030AE0083211C
:10048A002908AC007E217D30AC00C321F5294C2A15
:02400E004A2F37
:00000001FF
