:020000003F2897
:10000800FF00030E8301A7000A08A6008A017008F2
:10001800A0000C1D3628230803191F282508F00006
:10002800F1017008960024089500A3010930970093
:100038008F018E0134282408403CF3002508031C56
:10004800013E9C3CF4007408F000F1017008960031
:1000580073089500083097000130A3008F018E01C6
:10006800FB308C052008F00026088A00270E830044
:06007800FF0E7F0E0900DF
:10007E0083160313870183128701033083168600CC
:10008E00831286018F018E010130A3000830970084
:10009E0001309000C0308B0083160C150730831290
:1000AE009600D0309500061C6128C430A40009309B
:1000BE00A5006728861C6728E830A4000330A50039
:0400CE005A2868281C
:02400E004A2F37
:00000001FF
