:02000000742862
:0E0006008312031322088A00210882000800DA
:1000140003208A110A128000840AA10A0319A20A81
:08002400F003031D0A28080087
:10002C0083120313A30125082302031835280C306F
:10003C0087040630FC003030FD00FD0B2328FC0B40
:10004C0023280000F33087050630FC003030FD001B
:10005C00FD0B2E28FC0B2E280000A30A19280800E3
:10006C0083120313A30125082302031854288715B0
:10007C000630FC003030FD00FD0B4228FC0B422802
:10008C000000F73087050630FC003030FD00FD0B1A
:0E009C004D28FC0B4D280000A30A392808004F
:1000AA0083120313A30125082302031873280715D3
:1000BA000630FC003030FD00FD0B6128FC0B612886
:1000CA000000FB3087050630FC003030FD00FD0BD8
:0E00DA006C28FC0B6C280000A30A58280800B4
:1000E800C1308316031387008312870106308316F5
:1000F8009F00FF30890083128901871F8428A0167A
:10010800071F87282017091C8A282014891C8D2876
:10011800A014091D90282015071CED288230FC002A
:10012800DD30FD00FD0B9628FC0B96280000000032
:1001380007302005A400BA28DA28C830A5003620E0
:10014800DA286430A5003620DA28C830A500552002
:10015800DA286430A5005520DA28C830A500162012
:10016800DA286430A5001620DA28DA282408003AAC
:100178000319A0282408013A0319A1282408023ADF
:100188000319A5282408033A0319A9282408043ABE
:100198000319AD282408053A0319B1282408063A9A
:1001A8000319B5282408073A0319B928A001013012
:1001B8000705F1007108013A031DE328DB288230A6
:1001C800FC00DD30FD00FD0BE728FC0BE7280000F4
:0601D80000008128EE2862
:02400E004A2F37
:00000001FF
