:040000008A15002835
:020006000800F0
:10000800FF00030E8301C3000A08C2008A017008BA
:10001800AB007108AA007208A9007308A800740848
:10002800A7007508A6007808A5007908A4007A0832
:10003800A3007B08A2007C08A1007D08A0000B1D7E
:100048003E2802308706083087060B1132304602F8
:10005800F000F101031CF1036430F4000030F500F6
:1000680067266430F4000030F500F2267008963EEA
:100078008100BD0A3D08FF3A031D4328BC0A0C1D38
:100088006C283B08031955284A08F000F10170084C
:10009800960049089500BB01093097008F018E0131
:1000A8006A284908403CF3004A08031C013E9C3C6E
:1000B800F4007408F000F1017008960073089500C8
:1000C800083097000130BB008F018E01FB308C0592
:1000D8002B08F0002A08F1002908F2002808F3008C
:1000E8002708F4002608F5002508F8002408F90078
:1000F8002308FA002208FB002108FC002008FD0064
:0E01080042088A00430E8300FF0E7F0E09009E
:0E011600213083120313FD00FD0B8F2808001B
:100124000F3083120313FC004730FD00FD0B9828A9
:0A013400FC0B9828000000000800F2
:06013E00000000000800B3
:1001440083120313E21BA8288611A9288615621BB3
:10015400AD280611AE280615E21AB2288610B32877
:100164008614621AB7280610B82806144818BC2842
:100174000616BD28061286169F208612E219C42888
:100184008611C52886156219C9280611CA280615BC
:10019400E218CE288610CF2886146218D3280610B9
:1001A400D42806144818D8280616D9280612861604
:1001B4009F208612481CE0289220E1288B2008000A
:1001C40083120313F801F9011030FC00710DF80DCE
:1001D400F90D7408F8027508031C750FF902031869
:1001E400FA287408F80775080318750FF90703103F
:0A01F400F00DF10DFC0BE8280800E7
:1001FE00831203135D08F2007208F000F20A700811
:10020E008400000803190C2903295D087202F0000E
:0C021E000130F002F101031CF1030800A4
:10022A008312031348105D08E200A2204814080054
:10023A00831203135D08F0005E08F1000130DD024D
:10024A00031CDE0370087104031936290330FC000D
:10025A009730FD00FD0B2F29FC0B2F290000000011
:04026A001D29080042
:10026E0083120313E001053060020318452960086C
:10027E005F07840020308000E00A3A2960085F079B
:10028E0084008001E00360085F07E1000A30F4009B
:10029E00F5015D08F0005E08F100E2207808F0003C
:1002AE007908F1003030F007610884007008800092
:1002BE000A30F400F5015D08F0005E08F100E2205E
:1002CE007008DD007108DE0000307106031D712913
:1002DE0000307006031D74297629E0034A290800B0
:0E02EE008312031345088A00440882000800AA
:1002FC009029803083120313D400A329C030D4007A
:10030C00A3299430D400A329D430D400A32980305D
:10031C00D400A329831203135408013A03197F292B
:10032C005408023A031984295408033A03198729FB
:10033C005408043A03198A298D295503F0005408EE
:10034C00F0077008D40048147008E200A22048108E
:0A035C005608E200A2204814080031
:10036600C529803083120313D400D829C030D400A5
:10037600D8299430D400D829D430D400D829803054
:10038600D400D829831203135408013A0319B42957
:100396005408023A0319B9295408033A0319BC2927
:1003A6005408043A0319BF29C2295503F00054081A
:1003B600F0077008D4007008E200A2204810D701A8
:1003C60057085607840000080319F12957085607ED
:1003D60084000008DD001521D70AE3294814080027
:1003E600710DF80DF90D7408F8027508031C750FE8
:1003F600F902F00DF10D0F30FC00710DF80DF90D3D
:100406007408701C0C2AF8027508031C750FF90293
:10041600112AF80775080318750FF907F00DF10D85
:10042600FC0B002A70181D2A7408F80775080318B3
:08043600750FF9070000080032
:10043E0083120313D901DA015408DB005508DC00DE
:10044E0080305506F00080307002031D302A0030D7
:10045E00540203183E2A0130D9000030DA00540845
:10046E00003CDB005508031C013EDC01DC025B088E
:10047E00DD005C08DE005608DF0037210630D700AD
:10048E000030D8005808003C031D4F2A5708003C86
:10049E0003186A2A57085607F20001305702F00077
:1004AE000030031C013E5802F1007008560784000C
:1004BE000008F00072088400700880000130D70236
:1004CE00031CD803492A560884002030800059089E
:1004DE005A040319882AD701D801570856078400F1
:1004EE000008203A031D7F2AD70A0319D80A742A56
:1004FE000130D702031CD8035708560784002D304D
:04050E008000080061
:10051200DF308312031387057F308705EF308705AD
:10052200BF3087055408DD00DE011D21871707173C
:020532000800BF
:10053400EF30831203138705BF30870587167F309A
:1005440087055408DD00DE011D2107178717080001
:10055400831203135408DD00FF207008D5007108CE
:10056400D6000330D7000030D80080305806F000A1
:10057400803056067002031DC12A5508570203181D
:10058400DB2A03305702F0000030031C013E5802FE
:10059400F10070085407F10057085407840000085C
:1005A400F0007108840070088000D70A0319D80A83
:1005B400B72A03305502F0000030031C013E5602F6
:0C05C400F100700854078400800108005A
:1005D000EF30831203138705BF3087055408DD0011
:0805E000DE011D2107170800D0
:1005E800831203130716BF30870587167F308705E8
:0E05F8005408DD00DE011D21871707170800DB
:100606008312031387167F3087055408DD00DE0149
:060616001D2187170800FA
:10061C00831203130716BF3087055408DD00DE0173
:06062C001D210717080064
:10063200083083120313C9000730CA006430DD009A
:080642000030DE001D2108005C
:10064A00DF308312031387057F3087055408DD00E6
:08065A00DE011D2187170800D5
:10066200E83083120313C9000330CA006430DD008E
:080672000030DE001D2108002C
:10067A00831203130716BF308705DF3087057F30E3
:10068A0087055408DD00DE011D21071787170800BA
:10069A00643083120313D4009A226430D4002523D1
:1006AA006430D40025236430D40003236430D4009A
:1006BA000E236430D4003D2319236430D4009A22D7
:0406CA0031230800D0
:1006CE0019236430D400032331236430D4003D2336
:1006DE006430D40089226430D4009A226430D4006D
:0E06EE00F42219236430D400252331230800A0
:1006FC0019236430D400032331236430D4000E2337
:10070C006430D40025236430D40089226430D400B2
:04071C0003230800AB
:10072000643083120313D400F4226430D4002523F0
:100730006430D400252319236430D400E8226430C7
:10074000D400E82231236430D40003236430D40081
:0A07500003236430D4003D230800A9
:10075A0019236430D400892231236430D40003235E
:10076A006430D40003236430D4003D236430D400C1
:10077A003D236430D40003236430D40003231923B7
:0A078A006430D4003D233123080041
:10079400831603138612061206108610061186119C
:1007A40083128612061286110611861006109220F4
:1007B400922092208614061486169F208612922078
:1007C40086169F208612922086169F2086129220DB
:1007D400061086169F208612922086169F20861267
:1007E4008610861586169F2086129220861106147E
:1007F40086169F208612061086169F208612922047
:1008040086169F208612061486169F208612922032
:10081400061086169F208612861506158614061461
:0C08240086169F208612922048140800BF
:10083000C730831203139F054B08F000F00D7010B2
:10084000F00D7010F00D701070089F041F151F1D23
:100850002A2C272C1E08F100F00183161E08F00434
:060860000030F104080065
:10086600643083120313D4009A2219236430D4000F
:1008760025236430D400252331236430D400F422A8
:100886006430D400F42219236430D4002523643064
:0E089600D400252331236430D4009A220800B8
:1008A400831203138F018E010830970001309000EA
:1008B40083160C15073083129600D030950008007B
:1008C400643083120313D400F42219236430D40057
:1008D40025236430D400252331236430D4009A22A4
:1008E4006430D40003236430D40025236430D4005E
:0A08F40025236430D400032308001C
:1008FE00643083120313D4003D2319236430D400D3
:10090E00E82231236430D4009A226430D400F422D9
:10091E006430D4003D236430D4008922192364301E
:08092E00D4000323312308006B
:10093600643083120313D40003236430D4000E23DF
:100946006430D400E8226430D400E82219236430ED
:10095600D4003D2331236430D40025236430D400F1
:04096600032308005F
:10096A0019236430D400892231236430D4000E2341
:10097A006430D400F4226430D400E8226430D40015
:10098A00E8226430D400F4226430D4000E23192300
:0A099A006430D400892231230800E4
:1009A400643083120313D400252319236430D40044
:1009B4000E2331236430D4009A226430D4000323FC
:0E09C4006430D4003D236430D400E8220800E3
:1009D200643083120313D40089226430D4000323C9
:1009E2006430D400032319236430D4000E2364300E
:1009F200D4000E2331236430D40025236430D40084
:0A0A020025236430D4009A22080076
:100A0C00643083120313D4000E236430D400032308
:100A1C006430D400E8226430D40025236430D40040
:0C0A2C00252319236430D400F4220800B4
:100A380019236430D4009A2231236430D40025234A
:100A48006430D40025236430D4000E231923643085
:080A5800D40003233123080040
:100A600019236430D4009A2231236430D400252322
:100A70006430D40025236430D400F4226430D400E0
:0C0A8000F42219236430D40089220800FD
:100A8C0019236430D4009A2231236430D4002523F6
:100A9C006430D4003D236430D4000E236430D40081
:100AAC0003236430D400032319236430D400892237
:040ABC0031230800DA
:100AC0000530831603138100F030831281000B116F
:040AD0008B16080079
:100AD400643083120313D4009A226430D400252393
:0E0AE4006430D40025236430D400F4220800CE
:100AF200643083120313D400E8226430D400032349
:100B02006430D4000E2319236430D40025236430CA
:100B1200D400252331236430D400E8226430D40089
:0A0B220003236430D4000E23080002
:100B2C00043083120313D4000130D5002D30D600CD
:100B3C00B3210430D4000730D5004B08D6007E21F9
:020B4C0008009F
:100B4E00643083120313D40003236430D4000E23C5
:100B5E006430D400E8226430D400E82219236430D3
:100B6E00D40025236430D400252331236430D400EF
:100B7E000E236430D4000E236430D400E822643097
:060B8E00D400032308005F
:100B9400643083120313D400E8226430D4000323A6
:100BA4006430D4000E2319236430D4002523643028
:100BB400D40025236430D400E82231236430D400E7
:0E0BC400032319236430D4000E2331230800CC
:100BD200643083120313D4000E236430D40025231F
:100BE2006430D400E8226430D400E8226430D400B7
:100BF20003236430D40003236430D4000E23643012
:100C0200D40025236430D400E8226430D4000E23BB
:020C12000800D8
:100C140019236430D400F42231236430D400E82250
:100C24006430D400E8226430D40025236430D40036
:100C340025236430D4000E236430D4000E231923FA
:0A0C44006430D4009A223123080026
:100C4E00643083120313D4000E236430D40089223F
:100C5E006430D4009A226430D400F4221923643014
:060C6E00D400252308005C
:100C7400643083120313D400E8226430D4000323C5
:100C84006430D40025236430D40025231923643030
:100C9400D4000E236430D4000E2331236430D400F6
:100CA40003236430D40003236430D4002523643048
:060CB400D400E822080054
:100CBA004130831203139F00CE3083169F00033006
:040CCA008500080099
:100CCE0083120313FB01FA01F9018030F800F10CD5
:100CDE00F00C031C7B2E7408F90775080318750FAA
:100CEE00FA070318FB0A0310F01F832E7408FA0785
:100CFE0075080318750FFB07FB0CFA0CF90CF80CB2
:100D0E00031C6E2E7B08F3007A08F2007908F100BE
:060D1E007808F000080057
:100D240077218A110A128000840AC40A0319C50AA9
:080D3400F003031D922E0800DC
:100D3C0019236430D4000E236430D4000E236430A5
:080D4C00D4000E23312308003E
:100D5400643083120313D400F4226430D400E822F4
:100D64006430D400E82219236430D4003D233123B5
:100D74006430D40089226430D4000E236430D4005B
:0C0D84000E2319236430D4009A220800CA
:100D90001923C7012C08F000F101F00DF10D7010BE
:100DA00002307007F20071080318013EF300803032
:100DB000F000803073067002031DE02E72084702B7
:100DC0000318E72E6430D400E822C70ACA2E643024
:100DD000D40025236430D40025236430D400252397
:040DE00031230800B3
:100DE400831203137408003A031D012F7508003A97
:100DF400031D012FFF30F0007F30F1005A2F8312C2
:100E04000313FD01F901F80171087004031900349A
:100E140071087506FA00FA1BFD09FB01F51F172F6F
:100E2400F409F509F40A0319F50AF11F1E2FF00954
:100E3400F109F00A0319F10A71087504FA00FA1BA2
:100E4400332FF3217B18462FFD1F0034F009F109DD
:100E5400F00A0319F10AF809F909F80A0319F90A59
:100E64000034F51F422FF11B3E2F7108F900700862
:100E7400F800F101F001262FF101F001F00A00342D
:100E8400F109F009FB0A232FF80A0319F90A740877
:100E94007802031D262F75087902031D262FF901F8
:100EA400F801F00A0319F10AF11F262F0000FF349C
:020EB400080034
:100EB600643083120313D4009A2219236430D400B9
:100EC6000E236430D4000E2331236430D4008922EB
:100ED6006430D400252319236430D400032308008A
:100EE600831203134B08D4004C08D5004D30D600AE
:100EF6001F224D30D400AA220430D4000C30D50075
:100F06003430D600B3210430D4001230D5004D3031
:060F1600D600B321080023
:10100000FA21831603138701C03083128700FF3053
:1010100083168800831288018A115D268A158A1139
:1010200060258A158A1152248A158A11CA238A15C5
:101030000C30E2008A11A2208A150130E2008A11E8
:10104000A2208A158B170B17CB018A1118248A1539
:1010500070088312C6000030F1006430F4000030E4
:10106000F5008A1167268A15F230F400F5018A111D
:10107000F2268A153230F0077008C6003230F002CE
:10108000F101031CF1030A30F4000030F5008A116D
:1010900067268A156430F4000030F5008A11F226C4
:1010A0008A157008143CBF004108A03E84003E0829
:1010B0000006031968284108A03E84000008CB0000
:1010C0008A1196258A154108A03E84000008BE00BA
:1010D0004608CB00CC018A1173278A1540300805D9
:1010E000F1007108403A031DDE293230DD00003086
:1010F000DE008A111D218A152C083F02031896284C
:10110000C00A0130AC004008033C031896280130A7
:10111000E2008A11A2208A154108A03E840000083E
:10112000CB008A1196258A150130C0004008D400F2
:101130002C08D5004108A03E84000008D6008A1182
:101140007E218A154108A03E84000008413A031D13
:10115000AC288A114D238A154108A03E840000085E
:10116000423A031DB6288A11E9258A154108A03E96
:1011700084000008433A031DC0288A110A268A15F4
:101180004108A03E84000008443A031DCA288A1181
:101190006A258A154108A03E84000008453A031DCF
:1011A000D4288A1179258A154108A03E84000008B8
:1011B000463A031DDE288A11CA258A154108A03E39
:1011C00084000008473A031DE8288A1127268A155B
:1011D0004108A03E84000008483A031DF2288A1105
:1011E0003A268A154108A03E84000008493A031DAA
:1011F000FC288A11A7258A154108A03E8400000812
:101200004A3A031D06298A117E238A154108A03E09
:10121000840000084B3A031D10298A1162248A15A4
:101220004108A03E840000084C3A031D1A298A1187
:101230001C258A154108A03E840000084D3A031D74
:1012400024298A1190238A154108A03E84000008B1
:101250004E3A031D2E298A11AD238A154108A03E5E
:10126000840000084F3A031D38298A1167238A1524
:101270004108A03E84000008503A031D42298A110B
:1012800006258A154108A03E84000008513A031D36
:101290004C298A117F248A154108A03E8400000849
:1012A000523A031D56298A11D2248A154108A03EBC
:1012B00084000008533A031D60298A11B5248A1559
:1012C0004108A03E84000008543A031D6A298A118F
:1012D0009B248A154108A03E84000008553A031D4E
:1012E00074298A1146258A154108A03E8400000809
:1012F000563A031D7E298A1130258A154108A03EE1
:1013000084000008573A031D88298A11E9248A15A8
:101310004108A03E84000008583A031D92298A1112
:1013200033248A154108A03E84000008593A031D61
:101330009C298A115B278A154108A03E8400000879
:101340005A3A031DA6298A11AA268A154108A03EE9
:10135000840000080A3A031DBE298A11C8268A158E
:101360000130AC00C00A4008033C0318BE2901301C
:10137000E2008A11A2208A150130C0004108A03E77
:1013800084000008203A031DC8298A1103208A1509
:101390004108A03E840000080A3A0319D3298A11A3
:1013A0009E268A15AC0AC101081FD729D4293230DC
:1013B000DD000030DE008A111D218A15081CE1299C
:1013C0004114881CE429C114081DE7294115881D12
:1013D000EA29C115081EED294116881EF029C116FB
:0A13E000881FF329C1012428F42915
:1013F4002C308400123083120313F000CE30C4006A
:101404000730C5008A1192268A15A0308400403026
:101414000313F0008E30C4000730C5008A119226F1
:101424008A153E30840004300313F000E030C40019
:0C1434000730C5008A1192268A150800B6
:100F1C0020340A3421342134213421342134213435
:100F2C00213421342134213421342134213421340D
:100F3C0021342134213421342134213421342134FD
:100F4C0049342134533421344A3457345434213401
:100F5C00413421344B345534453421344F345A34D4
:100F6C00423421344C3456344834213452342134F4
:100F7C00433421344D345834443421344E345934B0
:100F8C004634213450342134473421345134213403
:020F9C0001341E
:0E0F9E0043346834613472343A342034003401
:0E0FAC00533469347A3465343A3420340034D6
:020FBA00013400
:020FBC000034FF
:020FBE000034FD
:020FC0000034FB
:020FC2001434E5
:020FC4000134F6
:020FC6000034F5
:02400E004A2F37
:00000001FF
