:02000000AD2A27
:10000800FF00030E8301BF000A08C1008A017008BF
:10001800A0000B1D1728043087060B11F030810053
:10002800C20A0319C30A00304306031D1D286430A1
:100038004206031D24280130A100AE0AC201C301F3
:100048000C1C3028083087060C10FF308F008030D9
:100058008E00BD0A0319BE0A00303E06031D36286D
:1000680064303D06031D3D280130A100AD0ABD01E5
:10007800BE012008F00041088A003F0E8300FF0EF1
:040088007F0E0900DE
:06008C0000000000080066
:100092000F3083120313FC004730FD00FD0B4F2885
:0A00A200FC0B4F28000000000800CE
:0E00AC00213083120313FD00FD0B5A280800BB
:1000BA0083120313D21B6328861164288615521BE8
:1000CA006828061169280615D21A6D2886106E2826
:1000DA008614521A72280610732806142A187728CA
:1000EA00061678280612861646208612D2197F2806
:1000FA008611802886155219842806118528061526
:10010A00D218892886108A28861452188E28061032
:10011A008F2806142A18932806169428061286167B
:10012A00462086122A1C9B2849209C285620080013
:10013A0083120313F801F9011030FC00710DF80D58
:10014A00F90D7408F8027508031C750FF9020318F3
:10015A00B5287408F80775080318750FF90703100E
:0A016A00F00DF10DFC0BA3280800B6
:10017400831203132A104D08D2005D202A140800AC
:0E018400831203132C088A002B088200080047
:10019200831203130716BF3087050230FB000430B9
:1001A200FC00BA30FD00FD0BD428FC0BD428FB0B5D
:0801B200D42800000717080023
:1001BA00DF308312031387057F3087050230FB0087
:1001CA000430FC00BA30FD00FD0BE928FC0BE928DD
:0A01DA00FB0BE9280000871708005E
:1001E4008312031387167F3087050230FB00043027
:1001F400FC00BA30FD00FD0BFD28FC0BFD28FB0BB9
:08020400FD2800008717080027
:10020C00EF30831203138705BF3087050230FB00E4
:10021C000430FC00BA30FD00FD0B1229FC0B122936
:0A022C00FB0B122900000717080061
:1002360083120313D00105305002031829295008F0
:100246004F07840020308000D00A1E2950084F072F
:1002560084008001D00350084F07D1000A30F40013
:10026600F5014D08F0004E08F1009D207808F000D9
:100276007908F1003030F0075108840070088000DA
:100286000A30F400F5014D08F0004E08F1009D20FB
:100296007008CD007108CE0000307106031D552987
:1002A60000307006031D58295A29D0032E2908004C
:0602B600C920C920080068
:1002BC000621F220DD20DD20F220C920C920F22009
:0802CC00DD20DD20F220080016
:1002D400C2208A110A128000840AAB0A0319AC0AEC
:0802E400F003031D6A29080064
:0E02EC00DD200621F220F220DD20C9200800CE
:1002FA0083120313C001063040020318872906211E
:0A030A00C00A8029DD20DD20080074
:1003140083120313C901CA014408CB004508CC0069
:1003240080304506F00080307002031D9B290030A8
:1003340044020318A9290130C9000030CA00440846
:10034400003CCB004508031C013ECC01CC024B0809
:10035400CD004C08CE004608CF001B210630C70054
:100364000030C8004808003C031DBA294708003C77
:100374000318D52947084607F20001304702F00068
:100384000030031C013E4802F10070084607840057
:100394000008F00072088400700880000130C70271
:1003A400031CC803B429460884002030800049088F
:1003B4004A040319F329C701C80147084607840002
:1003C4000008203A031DEA29C70A0319C80ADF29CD
:1003D4000130C702031CC8034708460784002D30B8
:0403E400800008008D
:1003E800831603138612061206108610061186114C
:1003F80083128612061286110611861006104920ED
:10040800492049208614061486164620861249205B
:1004180086164620861249208616462086124920CE
:100428000610861646208612492086164620861211
:1004380086108615861646208612492086110614CF
:1004480086164620861206108616462086124920F1
:1004580086164620861206148616462086124920DD
:10046800061086164620861286150615861406146A
:0C04780086164620861249202A1408002F
:100484003130831203139000FF308F0080308E00D0
:080494000C1083160C14080083
:10049C000621F220C9200621DD20DD20C9200621FD
:0604AC00F220C920080047
:1004B2000530831603138100F030831281000B1183
:0404C2008B1608008D
:1004C6004130831203139F00CE3083169F00033002
:0404D6008500080095
:1004DA007F2A803083120313C400922AC030C400DA
:1004EA00922A9430C400922AD430C400922A8030CE
:1004FA00C400922A831203134408013A03196E2A8C
:10050A004408023A0319732A4408033A0319762A5B
:10051A004408043A0319792A7C2A4503F00044085E
:10052A00F0077008C4007008D2005D202A10C701C5
:10053A0047084607840000080319AB2A47084607FC
:10054A0084000008CD00BA20C70A9D2A2A14080090
:10055A0083120313A1014830A2006530A3006C3056
:10056A00A4006C30A5006F30A6002130A70021300E
:10057A00A800A90183168701C0308312870063226D
:10058A00FF308312880059224222F4210C30D20013
:10059A005D200130D2005D200130C4000130C50069
:1005AA002230C6006D228B170B17C201C301BD0191
:1005BA00BE01AE01AD015E215B214E225B21762197
:1005CA005B2176217D2121080319092BA101013024
:1005DA00D2005D202E08C400C5013630C6008A212B
:1005EA002D08C400C5012F30C6008A210130C4007D
:1005FA000130C5003630C6006D220230C400013019
:0C060A00C5002F30C6006D22E82A0A2B24
:02400E004A2F37
:00000001FF
