:02000000152BBE
:10000800FF00030E8301AF000A08C1008A017008CF
:10001800A3007108A2007208A1007408A0000B1DBB
:100028001D28043087060B1149088100B80A0319F6
:10003800B90A00303906031D232864303806031D29
:100048002A280130A400B10AB801B9018C1C322851
:10005800083087068C10B20A0319B30A0030330639
:10006800031D382864303206031D3F280130A400E0
:10007800B40AB201B3010D1C6728350803195128C9
:100088003708F000F10170089C0036089B00B501A4
:1000980009309D008F018E0166283608403CF30028
:1000A8003708031C013E9C3CF4007408F000F10181
:1000B80070089C0073089B0008309D000130B50053
:1000C8008F018E010D102308F0002208F10021088D
:1000D800F2002008F40041088A002F0E8300FF0E6A
:0400E8007F0E09007E
:0600EC0000000000080006
:1000F2000F3083120313FC004730FD00FD0B7F28F5
:0A010200FC0B7F280000000008003D
:0E010C00213083120313FD00FD0B8A2808002A
:10011A0083120313F801F9011030FC00710DF80D78
:10012A00F90D7408F8027508031C750FF902031813
:10013A00A5287408F80775080318750FF90703103E
:0A014A00F00DF10DFC0B93280800E6
:1001540083120313D81BB0288611B1288615581BA7
:10016400B5280611B6280615D81ABA288610BB2851
:100174008614581ABF280610C02806143018C4283C
:100184000616C5280612861676208612D819CC289B
:100194008611CD2886155819D1280611D22806159E
:1001A400D818D6288610D72886145818DB280610A5
:1001B400DC2806143018E0280616E12806128616F4
:1001C40076208612301CE8287920E9288620080049
:1001D400831203130716BF3087050530FB000F3069
:1001E400FC00F130FD00FD0BF528FC0BF528FB0BA2
:0601F400F52807170800C2
:1001FA00EF30831203138705BF3087050530FB00F4
:10020A000F30FC00F130FD00FD0B0929FC0B092918
:08021A00FB0B0929071708007E
:0E022200831203132E088A002D0882000800A4
:10023000DF308312031387057F3087050530FB000D
:100240000F30FC00F130FD00FD0B2429FC0B2429AC
:08025000FB0B242987170800AD
:100258008312031330105308D800AA203014080062
:10026800DF308312031387057F3087050530FB00D5
:100278000F30FC00F130FD00FD0B4029FC0B40293C
:08028800FB0B40298717080059
:100290008312031387167F3087050530FB000F306C
:1002A000FC00F130FD00FD0B5329FC0B5329FB0B27
:0602B00053298717080026
:1002B600831203130716BF308705DF3087057F30AB
:1002C60087050530FB002430FC00B830FD00FD0B2F
:1002D6006A29FC0B6A29FB0B6A2900000717871796
:0202E60008000E
:1002E800EF30831203138705BF30870587167F30E9
:1002F80087050530FB002430FC00B830FD00FD0BFD
:100308008329FC0B8329FB0B832900000717871718
:020318000800DB
:10031A00831203130716BF3087050530FB000F3021
:10032A00FC00F130FD00FD0B9829FC0B9829FB0B12
:06033A00982907170800D6
:1003400083120313D601053056020318AE2956084E
:100350005507840020308000D60AA3295608550787
:1003600084008001D60356085507D7000A30F400F0
:10037000F5015308F0005408F1008D207808F000D2
:100380007908F1003030F0075708840070088000C9
:100390000A30F400F5015308F0005408F1008D20F4
:1003A0007008D3007108D40000307106031DDA29EB
:1003B00000307006031DDD29DF29D603B3290800AC
:1003C000FD2048218D2134213421FD204821EA20BF
:0203D000080023
:1003D20083120313CF01D0014A08D1004B08D20087
:1003E20080304B06F00080307002031DFA29003085
:1003F2004A020318082A0130CF000030D0004A0810
:10040200003CD1004B08031C013ED201D20251082C
:10041200D3005208D4004C08D500A0210630CD00EC
:100422000030CE004E08003C031D192A4D08003C46
:100432000318342A4D084C07F20001304D02F00037
:100442000030031C013E4E02F10070084C0784008C
:100452000008F00072088400700880000130CD02AC
:10046200031CCE03132A4C088400203080004F085E
:1004720050040319522ACD01CE014D084C078400C5
:100482000008203A031D492ACD0A0319CE0A3E2A42
:100492000130CD02031CCE034D084C0784002D30E1
:0404A20080000800CE
:1004A600652A803083120313CA00782AC030CA0036
:1004B600782A9430CA00782AD430CA00782A803044
:1004C600CA00782A831203134A08013A0319542AE8
:1004D6004A08023A0319592A4A08033A03195C2AB8
:1004E6004A08043A03195F2A622A4B03F0004A08B5
:1004F600F0077008CA007008D800AA203010CD0195
:100506004D084C07840000080319912A4D084C0732
:1005160084000008D3002C21CD0A832A3014080059
:10052600831603138612061206108610061186110C
:10053600831286120612861106118610061079207D
:10054600792079208614061486167620861279205C
:1005560086167620861279208616762086127920CF
:100566000610861676208612792086167620861242
:100576008610861586167620861279208611061430
:100586008616762086120610861676208612792022
:10059600861676208612061486167620861279200E
:1005A60006108616762086128615061586140614FB
:0C05B6008616762086127920301408008A
:1005C20006308312031392003F3083169200831287
:0805D2008C1083168C14080044
:1005DA000530831603138100F030831281000B115A
:0405EA008B16080064
:1005EE004130831203139F00CE3083169F000330D9
:0405FE00850008006C
:1006020011218A110A128000840AAD0A0319AE0A66
:08061200F003031D012B080099
:10061A0074211821182148218D215B217421080099
:10062A0083120313A4014830A5006530A6006C307C
:10063A00A7006C30A8006F30A9002130AA00213031
:10064A00AB00AC0183168701C03083128700F72202
:10065A00FF3083128800ED22E12293220C30D80069
:10066A00AA200130D800AA200130CA000130CB00EC
:10067A002530CC0053228B170B17B801B901B201F0
:10068A00B301B101B4018F018E010130B500083008
:10069A009D0001309000C0308B0083160D14073086
:1006AA0083129C00D0309B002030B6000330B70084
:1006BA000230FB000430FC00BA30FD00FD0B632B56
:1006CA00FC0B632BFB0B632B0000FD2048218D21C3
:1006DA00B030B6000430B7000230FB000430FC0032
:1006EA00BA30FD00FD0B772BFC0B772BFB0B772B1E
:1006FA000000342134212030B6000330B700023024
:10070A00FB000430FC00BA30FD00FD0B8A2BFC0B09
:10071A008A2BFB0B8A2B0000FD204821B030B60043
:10072A000430B7000230FB000430FC00BA30FD0090
:10073A00FD0B9D2BFC0B9D2BFB0B9D2B0000EA2038
:10074A0024080319C62BA4010130D800AA203108B5
:10075A00CA00CB014230CC00E9213408CA00CB01DF
:10076A003A30CC00E9210130CA000130CB004230D6
:10077A00CC0053220230CA000130CB003A30CC0000
:10078A005322081EC92BE021881ECC2B0D23081CDE
:10079A00D32BE830B6000330B700D92B881CD92BED
:0C07AA001430B6000530B700A52BDA2B88
:02400E004A2F37
:00000001FF
