:040000008A15002835
:10000800FF00030E8301E8000A08E7008A01700870
:10001800A2007108A1007208A0000B1D1828023068
:1000280087060B11F03081008C1C1D2808308706CC
:100038008C100C1D4628660803192F286B08F00041
:10004800F101700896006A089500E60109309700EA
:100058008F018E0144286A08403CF3006B08031C9A
:10006800013E9C3CF4007408F000F1017008960011
:1000780073089500083097000130E6008F018E0163
:10008800FB308C052208F0002108F1002008F2005E
:0E00980067088A00680E8300FF0E7F0E0900C5
:1000A600831603132108F0002208F1000130A10293
:1000B600031CA2037008710403196C280330FC00AA
:1000C6009730FD00FD0B6528FC0B6528000000003D
:0400D60053280800A3
:0600DA0000000000080018
:1000E0000F3083120313FC004730FD00FD0B762810
:0A00F000FC0B762800000000080059
:0E00FA00213083120313FD00FD0B8128080046
:10010800DF308312031387057F30870583162008A5
:0C011800A100A2015320831287170800E9
:100124008312031387167F30870583162008A100E6
:0A013400A201532083128717080070
:10013E00831203130716BF30870583162008A1000C
:0A014E00A2015320831207170800D6
:10015800EF30831203138705BF3087058316200805
:0C016800A100A201532083120717080019
:0E017400831203136D088A006C0882000800D5
:10018200083083120313EA000730EB006430831651
:0A019200A1000030A2005320080075
:10019C00E83083120313EA000330EB00643083165B
:0A01AC00A1000030A200532008005B
:1001B600831203130716BF308705DF3087057F30AC
:1001C600870583162008A100A20153208312071772
:0401D600871708007F
:1001DA0083160313A01BF42883128611F6288312B0
:1001EA0086158316201BFC2883120611FE2883120B
:1001FA0006158316A01A042983128610062983126B
:10020A0086148316201A0C29831206100E298312CB
:10021A0006146E18122906161329061286166D2060
:10022A0086128316A0191C29831286111E2983128D
:10023A00861583162019242983120611262983126A
:10024A0006158316A0182C29831286102E298312CC
:10025A00861483162018342983120610362983122D
:10026A0006146E183A2906163B29061286166D20C0
:0E027A0086126E1C4229702043297D20080048
:10028800EF30831203138705BF30870587167F3049
:10029800870583162008A100A2015320831207179F
:0402A80087170800AC
:1002AC00DF308312031387057F308705EF30870516
:1002BC00BF30870583162008A100A20153208312AA
:0602CC0087170717080068
:1002D200831203130716BF30870587167F30870501
:1002E20083162008A100A201532083128717071743
:0202F200080002
:1002F4008312031323088316A000442123088316C2
:10030400A000842023088316A000842023088316D9
:06031400A00069210800B1
:10031A0006308312031392003F3083169200831231
:08032A008C1083168C140800EE
:100332008312031323088316A00092202308831636
:10034200A000842023088316A0008420230883169B
:10035200A0009F2023088316A000AC202308831648
:06036200A000922008003B
:10036800C120831223088316A0006921CE2083129E
:1003780023088316A000AC2023088316A000AC2015
:1003880023088316A000842023088316A000842055
:1003980023088316A0009F2023088316A0009F200F
:1003A800C120831223088316A0004421CE20080010
:1003B800831603138612061206108610061186117C
:1003C80083128612061286110611861006107020F6
:1003D800702070208614061486166D2086127020F0
:1003E80086166D208612702086166D208612702063
:1003F800061086166D208612702086166D208612CD
:100408008610861586166D208612702086110614B1
:1004180086166D208612061086166D2086127020AC
:1004280086166D208612061486166D208612702098
:10043800061086166D208612861506158614061473
:0C04480086166D20861270206E140800CD
:10045400C120831223088316A0005621CE208312C4
:1004640023088316A0009F2023088316A000692177
:1004740023088316A000AC2023088316A000AC2018
:1004840023088316A000692123088316A0009F2057
:10049400C120831223088316A0005621CE20080011
:1004A4008312031323088316A000922023088316C3
:1004B400A0009F2023088316A000AC2023088316E5
:1004C400A000AC20C120831223088316A000DB20E7
:1004D400CE20831223088316A000842023088316C9
:0604E400A00092200800B8
:1004EA00C120831223088316A0004421CE20831240
:1004FA0023088316A000842023088316A00056210F
:10050A0023088316A0009F2023088316A0009220A8
:10051A0023088316A0009220C12083122308831681
:08052A00A0005621CE200800BC
:100532008312031323088316A0008420C120831290
:1005420023088316A0009F20CE208312230883163F
:10055200A000442123088316A000922023088316BA
:0E056200A000DB2023088316A000AC200800B8
:100570008312031323088316A000AC2023088316DC
:10058000A000922023088316A0009F20C120831280
:1005900023088316A000842023088316A00084204B
:1005A000CE20831223088316A000AC2023088316D4
:0E05B000A000922023088316A0009F200800C0
:1005BE00BA208A110A128000840AEC0A0319ED0A85
:0805CE00F003031DDF2A080001
:1005D600C730831203139F056F08F000F00D7010EB
:1005E600F00D7010F00D701070089F041F151F1D80
:1005F600FD2AFA2A1E08F100F00183161E08F004EF
:060606000030F1040800C1
:10060C00C1208312E9018030F0008030003A700282
:10061C00031D122B2630690203181A2B230883168C
:10062C00A000AC20E90A092B23088316A000842023
:0C063C0023088316A0008420CE200800B4
:10064800831203136E106F088316A000ED206E143A
:02065800080098
:10065A00C120831223088316A00092202308831640
:10066A00A0009F2023088316A00084202308831655
:0E067A00A000562123088316A000922008003D
:100688008312031323088316A0006921C120831253
:1006980023088316A000842023088316A000842042
:1006A800CE20831223088316A00044212308831632
:1006B800A000922023088316A00084202308831614
:0E06C800A000842023088316A00092200800C2
:1006D600831203138F018E010830970001309000BA
:1006E60083160C15073083129600D030950008004B
:1006F6008312031323088316A00069212308831697
:10070600A000842023088316A0008420C120831221
:1007160023088316A000AC2023088316A000AC2073
:1007260023088316A000922023088316A000922097
:0A07360023088316A000DB20080052
:100740008312031323088316A000AC20230883160A
:10075000A000922023088316A0009F20C1208312AE
:1007600023088316A000842023088316A000842079
:1007700023088316A000AC20CE2083122308831602
:10078000A0009220C120831223088316A0009F207E
:04079000CE2008006F
:10079400C120831223088316A0009220CE20831246
:1007A40023088316A000DB2023088316A00056210B
:1007B40023088316A000442123088316A00069217E
:1007C400C120831223088316A0008420CE200800B1
:1007D4008312031323088316A0004421C12083122B
:1007E40023088316A000842023088316A0008420F5
:1007F400CE20831223088316A000692123088316C0
:10080400A0006921C120831223088316A00084203C
:1008140023088316A0008420CE2083122308831685
:06082400A00044210800C1
:10082A008312031323088316A000AC20230883161F
:10083A00A000922023088316A00084202308831690
:10084A00A0008420C120831223088316A0009F20C1
:10085A0023088316A0009F2023088316A000922055
:10086A0023088316A000922023088316A000842060
:0A087A0023088316A000AC2008003C
:100884008312031323088316A0004421C12083127A
:1008940023088316A000AC2023088316A000AC20F4
:1008A400CE20831223088316A000842023088316F5
:0E08B400A000842023088316A0004421080021
:1008C200C120831223088316A0009F2023088316C9
:0808D200A0009F20CE200800C9
:1008DA008312031323088316A000692123088316B1
:1008EA00A000AC2023088316A000AC20C1208312EC
:1008FA0023088316A000DB20CE2083122308831648
:10090A00A000562123088316A0009F2023088316DF
:10091A00A0009F20C120831223088316A00044212F
:02092A000800C3
:10092C008312031323088316A00092202308831636
:10093C00A0009F2023088316A000AC202308831658
:10094C00A000AC20C120831223088316A0008420B1
:10095C0023088316A0008420CE208312230883163C
:10096C00A0009F2023088316A0009F202308831635
:0E097C00A000AC2023088316A00092200800E3
:10098A008312031323088316A00056212308831613
:10099A00A000922023088316A0009220C12083126F
:1009AA0023088316A000AC2023088316A000AC20DD
:1009BA00CE20831223088316A000842023088316DE
:0E09CA00A000842023088316A000442108000A
:1009D8008312031323088316A0009F20230883167D
:1009E800A000842023088316A000AC2023088316C7
:1009F800A000AC2023088316A000922023088316A9
:100A0800A000922023088316A0009F2023088316A5
:100A1800A000842023088316A000AC202308831696
:060A2800A0009F20080061
:100A2E000530831603138100F030831281000B1101
:040A3E008B1608000B
:100A42008312031323088316A0004421230883166C
:100A5200A000842023088316A00084202308831684
:100A6200A000922023088316A0009F20230883164B
:100A7200A000DB20C120831223088316A00044219A
:040A8200CE2008007A
:100A86004130831203139F00CE3083169F0003303C
:040A960085000800CF
:100A9A008312031323088316A0004421C120831262
:100AAA0023088316A0009F20CE20831223088316D2
:100ABA00A000562123088316A0008420C120831297
:0A0ACA0023088316A0009220080004
:100AD400C120831223088316A0005621CE2083123E
:100AE40023088316A000922023088316A0009220D6
:100AF40023088316A000DB2023088316A000DB2034
:100B040023088316A000922023088316A0009220B5
:100B1400C120831223088316A000DB20CE20080006
:100B24008312031323088316A0009F20230883162F
:100B3400A000562123088316A0004421230883160D
:100B4400A0006921C120831223088316A0008420F9
:020B5400080097
:100B56008312031323088316A0009F2023088316FD
:100B6600A000922023088316A000AC202308831639
:100B7600A000842023088316A0008420C1208312AD
:0A0B860023088316A000692108006F
:100B90008312031323088316A000DB20C1208312D5
:100BA00023088316A000AC20CE20831223088316CE
:100BB000A000442123088316A0006921230883167E
:100BC000A000DB2023088316A0005621C120831239
:0C0BD00023088316A0009220CE2008000D
:100C640023308400443083120313F000EE30EC0090
:080C74000530ED00DF2208004D
:101000008A1132268A15831603138701C030831292
:1010100087008A1143258A15FF3088008A11172519
:101020008A158A118D218A158A116B238A158A11D6
:10103000DC218A150C308316A0008A11ED208A1558
:1010400001308316A0008A11ED208A158B170B172B
:10105000EF018A11EB228A1570088312A300403039
:101060000805F1007108403A031DB3298230FC00E5
:10107000DD30FD00FD0B3A28FC0B3A280000000093
:101080002508143A031D4E28C0308316A0008A118B
:10109000ED208A158A1106238A1586280030003A29
:1010A000031D5528283083122506031D612894301E
:1010B0008316A0008A11ED208A158A1106238A154D
:1010C00086280030003A031D68283C30831225062C
:1010D000031D7428D4308316A0008A11ED208A15D0
:1010E0008A1106238A1586280030003A031D7B28C2
:1010F000503083122506031D862801308316A00078
:101100008A11ED208A158A1106238A158312240874
:10111000263E84000008EF008A1124238A15A50AC0
:101120002408263E84000008613A031D9A288A118B
:1011300021258A1583122408263E84000008623A7D
:10114000031DA5288A11EC248A152408263E840054
:101150000008633A031DAF288A11B4218A1583124F
:101160002408263E84000008643A031DBA288A1128
:101170007A218A152408263E84000008653A031D5A
:10118000C4288A11B8228A152408263E8400000843
:10119000663A031DCE288A11A0238A1583122408DB
:1011A000263E84000008673A031DD9288A1192253B
:1011B0008A152408263E84000008683A031DE328A7
:1011C0008A1115248A152408263E84000008693AED
:1011D000031DED288A1196248A152408263E8400D2
:1011E00000086A3A031DF7288A112D238A1524085E
:1011F000263E840000086B3A031D01298A1144230E
:101200008A152408263E840000086C3A031D0B2929
:101210008A1199218A152408263E840000086D3A17
:10122000031D15298A117B238A152408263E840074
:1012300000086E3A031D1F298A116A258A15831238
:101240002408263E840000086F3A031D2A298A11CB
:10125000CA238A1583122408263E84000008703AA7
:10126000031D35298A11AB258A152408263E8400E2
:101270000008713A031D3F298A11C8258A15831277
:101280002408263E84000008723A031D4A298A1168
:1012900099228A152408263E84000008733A031D0B
:1012A00054298A112A228A1583122408263E840092
:1012B0000008743A031D5F298A1152228A152408F6
:1012C000263E84000008753A031D69298A1175229B
:1012D0008A1583122408263E84000008763A031DEE
:1012E00074298A1142248A152408263E84000008A5
:1012F000773A031D7E298A11C5248A152408263EC3
:1013000084000008783A031D88298A11EA238A1587
:101310002408263E84000008793A031D92298A1188
:101320004D258A152408263E840000087A3A031DBC
:101330009C298A116D248A15A4018A1161248A15B9
:10134000403083120805F1007108403A031DA929B5
:10135000A0298230FC00DD30FD00FD0BAD29FC0B27
:10136000AD290000000001300805F1007108013AC4
:10137000031DBB29241402300805F1007108023A4C
:10138000031DC329A41404300805F1007108043AB0
:10139000031DCB29241508300805F1007108083A0F
:1013A000031DD329A41510300805F1007108103A67
:1013B000031DDB29241620300805F1007108203AAE
:1013C000031DE329A41680300805F1007108803A56
:0A13D000031DEB29A4012828EC29D5
:020BDC00F434EF
:020BDE000034E1
:020BE0000034DF
:100BE200203421342134213421342134213431344C
:100BF200213421342134213421342134213431343B
:100C0200213421342134213421342134213431342A
:100C120069342134733421346A347734743421349E
:100C2200613421346B347534653421346F347A3451
:100C3200623421346C347634683421347234213491
:100C4200633421346D347834643421346E3479342D
:100C520066342134703421346734213471342134C0
:020C620001345B
:02400E004A2F37
:00000001FF
