:020000002D2AA7
:10000800FF00030E8301B3000A08B2008A017008DA
:10001800A0000B1D1728043087060B11F030810053
:10002800AE0A0319AF0A00302F06031D1D286430DD
:100038002E06031D24280130A100B00AAE01AF012D
:100048000C1C3028083087060C10FF308F008030D9
:100058008E00AC0A0319AD0A00302D06031D3628A0
:1000680064302C06031D3D280130A100B10AAC0103
:10007800AD012008F00032088A00330E8300FF0E1D
:040088007F0E0900DE
:06008C0000000000080066
:100092000F3083120313FC004730FD00FD0B4F2885
:0A00A200FC0B4F28000000000800CE
:0E00AC00213083120313FD00FD0B5A280800BB
:1000BA0083120313D11B6328861164288615511BEA
:1000CA006828061169280615D11A6D2886106E2827
:1000DA008614511A722806107328061442187728B3
:1000EA00061678280612861646208612D1197F2807
:1000FA008611802886155119842806118528061527
:10010A00D118892886108A28861451188E28061034
:10011A008F28061442189328061694280612861663
:10012A0046208612421C9B2849209C2856200800FB
:10013A0083120313F801F9011030FC00710DF80D58
:10014A00F90D7408F8027508031C750FF9020318F3
:10015A00B5287408F80775080318750FF90703100E
:0A016A00F00DF10DFC0BA3280800B6
:1001740083120313CF0105304F020318C8284F0818
:100184004E07840020308000CF0ABD284F084E0758
:1001940084008001CF034F084E07D0000A30F400DA
:1001A400F5014C08F0004D08F1009D207808F0009E
:1001B4007908F1003030F00750088400700880009E
:1001C4000A30F400F5014C08F0004D08F1009D20C0
:1001D4007008CC007108CD0000307106031DF428AE
:1001E40000307006031DF728F928CF03CD28080036
:1001F4008312031342104C08D1005D2042140800FE
:0E020400831203132B088A002A0882000800C8
:1002120083120313C801C9014308CA004408CB0072
:1002220080304406F00080307002031D1A2900302D
:100232004302031828290130C8000030C9004308CE
:10024200003CCA004408031C013ECB01CB024A0811
:10025200CC004B08CD004508CE00BA200630C600BF
:100262000030C7004708003C031D39294608003CFE
:100272000318542946084507F20001304602F000EF
:100282000030031C013E4702F1007008450784005C
:100292000008F00072088400700880000130C60275
:1002A200031CC70333294508840020308000480816
:1002B200490403197229C601C7014608450784008B
:1002C2000008203A031D6929C60A0319C70A5E29D4
:1002D2000130C602031CC7034608450784002D30BF
:0402E2008000080090
:1002E6003130831203139000FF308F0080308E0070
:0802F6000C1083160C14080023
:1002FE008316031386120612061086100611861137
:10030E0083128612061286110611861006104920D7
:10031E004920492086140614861646208612492046
:10032E0086164620861249208616462086124920B9
:10033E0006108616462086124920861646208612FC
:10034E0086108615861646208612492086110614BA
:10035E0086164620861206108616462086124920DC
:10036E0086164620861206148616462086124920C8
:10037E000610861646208612861506158614061455
:0C038E0086164620861249204214080002
:10039A00DF29803083120313C300F229C030C3005F
:1003AA00F2299430C300F229D430C300F2298030F4
:1003BA00C300F229831203134308013A0319CE2911
:1003CA004308023A0319D3294308033A0319D629E1
:1003DA004308043A0319D929DC294403F0004308E5
:1003EA00F0077008C3007008D1005D204210C601F2
:1003FA00460845078400000803190B2A46084507E2
:10040A0084000008CC00FA20C60AFD29421408001C
:10041A000530831603138100F030831281000B111B
:04042A008B16080025
:10042E004130831203139F00CE3083169F0003309A
:04043E00850008002D
:1004420002218A110A128000840AAA0A0319AB0A3D
:08045200F003031D212A08003C
:10045A0083120313A1014830A2006530A3006C3057
:10046A00A4006C30A5006F30A6002130A70021300F
:10047A00A800A90183168701C030831287001722BA
:10048A00FF30831288000D2273217F210C30D100A6
:10049A005D200130D1005D200130C3000130C4006D
:1004AA002230C500CD218B170B17AE01AF01AC016D
:1004BA00AD01B001B10121080319812AA10101305E
:1004CA00D1005D203008C300C4013B30C5000921BA
:1004DA003108C300C4013430C50009210130C3000A
:1004EA000130C4003B30C500CD210230C3000130C9
:0C04FA00C4003430C500CD21602A822AE5
:02400E004A2F37
:00000001FF
