:02000000152BBE
:10000800FF00030E8301B0000A08AF008A017008E0
:10001800A3007108A2007208A1007408A0000B1DBB
:100028001D28043087060B11F0308100C30A03191C
:10003800C40A00304406031D232864304306031D08
:100048002A280130A400C80AC301C4018C1C322824
:10005800083087068C10C50A0319C60A0030460600
:10006800031D382864304506031D3F280130A400CD
:10007800C70AC501C6010D1C672842080319512883
:100088004108F000F10170089C0040089B00C20183
:1000980009309D008F018E0166284008403CF3001E
:1000A8004108031C013E9C3CF4007408F000F10177
:1000B80070089C0073089B0008309D000130C20046
:1000C8008F018E010D102308F0002208F10021088D
:1000D800F2002008F4002F088A00300E8300FF0E7B
:0400E8007F0E09007E
:0600EC0000000000080006
:1000F2000F3083120313FC004730FD00FD0B7F28F5
:0A010200FC0B7F280000000008003D
:0E010C00213083120313FD00FD0B8A2808002A
:10011A0083120313F801F9011030FC00710DF80D78
:10012A00F90D7408F8027508031C750FF902031813
:10013A00A5287408F80775080318750FF90703103E
:0A014A00F00DF10DFC0B93280800E6
:1001540083120313D71BB0288611B1288615571BA9
:10016400B5280611B6280615D71ABA288610BB2852
:100174008614571ABF280610C02806143F18C4282E
:100184000616C5280612861676208612D719CC289C
:100194008611CD2886155719D1280611D22806159F
:1001A400D718D6288610D72886145718DB280610A7
:1001B400DC2806143F18E0280616E12806128616E5
:1001C400762086123F1CE8287920E928862008003A
:1001D400831203130716BF3087050530FB000F3069
:1001E400FC00F130FD00FD0BF528FC0BF528FB0BA2
:0601F400F52807170800C2
:1001FA00EF30831203138705BF3087050530FB00F4
:10020A000F30FC00F130FD00FD0B0929FC0B092918
:08021A00FB0B0929071708007E
:0E022200831203132E088A002D0882000800A4
:10023000DF308312031387057F3087050530FB000D
:100240000F30FC00F130FD00FD0B2429FC0B2429AC
:08025000FB0B242987170800AD
:10025800831203133F105208D700AA203F14080046
:10026800DF308312031387057F3087050530FB00D5
:100278000F30FC00F130FD00FD0B4029FC0B40293C
:08028800FB0B40298717080059
:100290008312031387167F3087050530FB000F306C
:1002A000FC00F130FD00FD0B5329FC0B5329FB0B27
:0602B00053298717080026
:1002B600831203130716BF308705DF3087057F30AB
:1002C60087050530FB002430FC00B830FD00FD0B2F
:1002D6006A29FC0B6A29FB0B6A2900000717871796
:0202E60008000E
:1002E800EF30831203138705BF30870587167F30E9
:1002F80087050530FB002430FC00B830FD00FD0BFD
:100308008329FC0B8329FB0B832900000717871718
:020318000800DB
:10031A00831203130716BF3087050530FB000F3021
:10032A00FC00F130FD00FD0B9829FC0B9829FB0B12
:06033A00982907170800D6
:1003400083120313D501053055020318AE29550851
:100350005407840020308000D50AA329550854078B
:1003600084008001D50355085407D6000A30F400F4
:10037000F5015208F0005308F1008D207808F000D4
:100380007908F1003030F0075608840070088000CA
:100390000A30F400F5015208F0005308F1008D20F6
:1003A0007008D2007108D30000307106031DDA29ED
:1003B00000307006031DDD29DF29D503B3290800AD
:1003C000FD2048218D2134213421FD204821EA20BF
:0203D000080023
:1003D20083120313CE01CF014908D0004A08D1008D
:1003E20080304A06F00080307002031DFA29003086
:1003F20049020318082A0130CE000030CF00490814
:10040200003CD0004A08031C013ED101D102500831
:10041200D2005108D3004B08D400A0210630CC00F2
:100422000030CD004D08003C031D192A4C08003C49
:100432000318342A4C084B07F20001304C02F0003A
:100442000030031C013E4D02F10070084B0784008E
:100452000008F00072088400700880000130CC02AD
:10046200031CCD03132A4B088400203080004E0861
:100472004F040319522ACC01CD014C084B078400CA
:100482000008203A031D492ACC0A0319CD0A3E2A44
:100492000130CC02031CCD034C084B0784002D30E5
:0404A20080000800CE
:1004A600652A803083120313C900782AC030C90038
:1004B600782A9430C900782AD430C900782A803046
:1004C600C900782A831203134908013A0319542AEA
:1004D6004908023A0319592A4908033A03195C2ABA
:1004E6004908043A03195F2A622A4A03F0004908B8
:1004F600F0077008C9007008D700AA203F10CC0189
:100506004C084B07840000080319912A4C084B0736
:1005160084000008D2002C21CC0A832A3F1408004C
:10052600831603138612061206108610061186110C
:10053600831286120612861106118610061079207D
:10054600792079208614061486167620861279205C
:1005560086167620861279208616762086127920CF
:100566000610861676208612792086167620861242
:100576008610861586167620861279208611061430
:100586008616762086120610861676208612792022
:10059600861676208612061486167620861279200E
:1005A60006108616762086128615061586140614FB
:0C05B60086167620861279203F1408007B
:1005C20006308312031392003F3083169200831287
:0805D2008C1083168C14080044
:1005DA000530831603138100F030831281000B115A
:0405EA008B16080064
:1005EE004130831203139F00CE3083169F000330D9
:0405FE00850008006C
:1006020011218A110A128000840AAD0A0319AE0A66
:08061200F003031D012B080099
:10061A0074211821182148218D215B217421080099
:10062A0083120313A4014830A5006530A6006C307C
:10063A00A7006C30A8006F30A9002130AA00213031
:10064A00AB00AC0183168701C03083128700F72202
:10065A00FF3083128800ED22E12293220C30D7006A
:10066A00AA200130D700AA200130C9000130CA00EF
:10067A002530CB0053228B170B17C301C401C501C8
:10068A00C601C801C7018F018E010130C2000830BE
:10069A009D0001309000C0308B0083160D14073086
:1006AA0083129C00D0309B00240803197A2BA401E2
:1006BA000130D700AA204808C900CA013130CB004E
:1006CA00E9214708C900CA013830CB00E9210130C5
:1006DA00C9000130CA003130CB0053220230C900B0
:1006EA000130CA003830CB005322081E7D2BE0218E
:1006FA00881E802B0D23081C872BE830C00003308E
:10070A00C100942B881C8E2B1430C0000530C10008
:10071A00942B081D942BAC30C0000D30C100592B0E
:02072A00952B0D
:02400E004A2F37
:00000001FF
