:020000006B2B68
:10000800FF00030E83018316A2000A088312EF0083
:100018008A017008A8007108A7007208A600740871
:10002800A5007508A4007808A3007908A2007C0838
:10003800A1007D08A0000B1D432802308706083068
:1000480087060B1132302D02F300F401031CF40370
:100058000430F2007308F0007408F1007208031904
:100068003A28F00DF10D7010FF3E3328CD30F40022
:100078000030F500DC227008E83E8100AA0A2A0850
:10008800FF3A031D4828AE0A0C1D77282B080319D0
:100098005E2883162508F000F10170088312960087
:1000A8008316240883129500AB01093097008F014D
:1000B8008E01752883162408403CF3002508031C8C
:1000C800013E9C3CF4007408F000F10170088312B2
:1000D800960073089500083097000130AB008F0137
:1000E8008E01FB308C052808F0002708F10026084F
:1000F800F2002508F4002408F5002308F800220877
:10010800F9002108FC002008FD006F088A0083160A
:0A011800220E8300FF0E7F0E090087
:0E012200213083120313FD00FD0B9528080009
:100130000F3083120313FC004730FD00FD0B9E2897
:0A014000FC0B9E28000000000800E0
:06014A00000000000800A7
:1001500083120313F801F9011030FC00710DF80D42
:10016000F90D7408F8027508031C750FF9020318DD
:10017000C0287408F80775080318750FF9070310ED
:0A018000F00DF10DFC0BAE28080095
:10018A0083160313C21BCC2883128611CE2883122E
:10019A0086158316421BD42883120611D628831289
:1001AA0006158316C21ADC2883128610DE288312EB
:1001BA0086148316421AE42883120610E62883124C
:1001CA00061483162318EC2883120616EE288312C7
:1001DA0006128616A52086128316C219F7288312DC
:1001EA008611F9288312861583164219FF2883126D
:1001FA0006110129831206158316C21807298312CC
:10020A008610092983128614831642180F2983122D
:10021A00061011298312061483162318172983122C
:10022A0006161929831206128616A5208612831627
:0C023A00231C2129982022299120080073
:100246008316031323103D08C200C520831623140A
:0202560008009E
:10025800710DF80DF90D7408F8027508031C750F77
:10026800F902F00DF10D0F30FC00710DF80DF90DCC
:100278007408701C4529F8027508031C750FF902EB
:100288004A29F80775080318750FF907F00DF10DDD
:10029800FC0B3929701856297408F80775080318D3
:0802A800750FF90700000800C2
:0E02B0008316031321088A002008820008002C
:1002BE0083160313C0010530400203186D29400850
:1002CE003F07840020308000C00A622940083F07A3
:1002DE0084008001C00340083F07C1000A30F400CB
:1002EE00F5013D08F0003E08F100A8207808F00066
:1002FE007908F1003030F007831641088400700849
:10030E0080000A30F400F5013D08F0003E08F100CF
:10031E00A82070088316BD007108BE00003071065B
:10032E00031D9B2900307006031D9E29A029C003C2
:04033E007229080018
:10034200831603133408F0003508F1000130B402BB
:10035200031CB503700871040319BA290330FC00A9
:100362009730FD00FD0BB329FC0BB3290000000000
:04037200A1290800B5
:10037600CD29803083160313B400E029C030B400C1
:10038600E0299430B400E029D430B400E02980306C
:10039600B400E029831603133408013A0319BC2973
:1003A6003408023A0319C1293408033A0319C42947
:1003B6003408043A0319C729CA293503F00034085A
:1003C600F0077008B4007008C200C5208316231019
:1003D600B70137083607840000080319FA293708D9
:1003E600360784000008BD002321B70AEC29231430
:0203F6000800FD
:1003F80083160313B901BA013408BB003508BC00E1
:1004080080303506F00080307002031D0D2A003060
:10041800340203181B2A0130B9000030BA0034082E
:10042800003CBB003508031C013EBC01BC023B0874
:10043800BD003C08BE003608BF005F210630B7008B
:100448000030B8003808003C031D2C2A3708003C4F
:100458000318472A37083607F20001303702F00040
:100468000030031C013E3802F10070083607840092
:100478000008F00072088400700880000130B7029C
:10048800031CB803262A3608840020308000390867
:100498003A040319652AB701B801370836078400FA
:1004A8000008203A031D5C2AB70A0319B80A512A22
:1004B8000130B702031CB8033708360784002D3013
:0404C80080000800A8
:1004CC00C730831203139F0583163408F000F00D18
:1004DC007010F00D7010F00D7010700883129F04E6
:1004EC001F151F1D7A2A772A1E08F100F0018316AA
:0A04FC001E08F0040030F1040800AF
:10050600831603138612061206108610061186112C
:10051600831286120612861106118610061098207E
:1005260098209820861406148616A52086129820F0
:100536008616A520861298208616A5208612982053
:1005460006108616A520861298208616A5208612E5
:10055600861086158616A520861298208611061402
:100566008616A520861206108616A52086129820C5
:100576008616A520861206148616A52086129820B1
:1005860006108616A52086128615061586140614EC
:0E0596008616A52086129820831623140800CE
:1005A4000530831603138100F030831281000B1190
:0405B4008B1608009A
:1005B800831203137408003A031DEB2A7508003AE6
:1005C800031DEB2AFF30F0007F30F100442B83122B
:1005D8000313FD01F901F8017108700403190034CF
:1005E80071087506FA00FA1BFD09FB01F51F012BBE
:1005F800F409F509F40A0319F50AF11F082BF009A3
:10060800F109F00A0319F10A71087504FA00FA1BD6
:100618001D2B2C217B18302BFD1F0034F009F1090C
:10062800F00A0319F10AF809F909F80A0319F90A8D
:100638000034F51F2C2BF11B282B7108F9007008CA
:10064800F800F101F001102BF101F001F00A00347B
:10065800F109F009FB0A0D2BF80A0319F90A7408C5
:100668007802031D102B75087902031D102BF90160
:10067800F801F00A0319F10AF11F102B0000FF34EA
:02068800080068
:10068A00831203138F018E01083097000130900006
:10069A0083160C15073083129600D0309500080097
:1006AA004130831203139F00CE3083169F0003301C
:0406BA0085000800AF
:1006BE0058218A110A128000840AA00A0319A10A7D
:0806CE00F003031D5F2B08007F
:1006D6004A24831603138701C030831287005523EB
:1006E600FF308800D222452383220C30C200C52069
:1006F60001308316C200C5208B170B178316B40171
:10070600662270088312AD0070088316B400B50126
:10071600A630B600FC210130B4000130B500A63089
:10072600B600BB2183122E088316B400B501AD3086
:10073600B600FC210230B4000130B500AD30B60081
:10074600BB21403083120805F1007108403A031DB1
:10075600C42B2C082F3E840000088316BD002321DD
:100766008312A90AAC0140300805F1007108403A2D
:10077600031DBE2BB62B32308316B4000030B500F5
:10078600A121013083120805F1007108013A031D09
:10079600CD2B2C1402300805F1007108023A031D16
:1007A600D52BAC1404300805F1007108043A031D7A
:1007B600DD2B2C1508300805F1007108083A031DD9
:1007C600E52BAC1510300805F1007108103A031D31
:1007D600ED2B2C1620300805F1007108203A031D78
:1007E600F52BAC1680300805F1007108803A031D20
:0807F600FD2BAC01812BFE2B51
:1008940029308400463083120313F0000430831699
:0A08A400A0000430A1005F2308004B
:020808000034BA
:02080A000034B8
:02080C000134B5
:02080E000034B4
:02081000F434BE
:020812000034B0
:10081400203421342134213421342134213431341D
:10082400213421342134213421342134213431340C
:1008340021342134213421342134213421343134FC
:1008440069342134733421346A3477347434213470
:10085400613421346B347534653421346F347A3423
:10086400623421346C347634683421347234213463
:10087400633421346D347834643421346E347934FF
:100884006634213470342134673421347134213492
:02400E004A2F37
:00000001FF
