:02000000C52C0D
:020006000800F0
:10000800FF00030E8301BC000A08BB008A017008C8
:10001800A4007108A3007208A2007308A100740864
:10002800A0000B1D1E2802308706083087060B111A
:10003800420881003608FF3A031D2328B50A0C1D23
:100048004C283408031935284108F000F1017008DC
:10005800960040089500B401093097008F018E0181
:100068004A284008403CF3004108031C013E9C3CE0
:10007800F4007408F000F101700896007308950008
:10008800083097000130B4008F018E01FB308C05D9
:100098002408F0002308F1002208F2002108F300E8
:1000A8002008F4003B088A003C0E8300FF0E7F0EF8
:0200B80009003D
:0E00BA00213083120313FD00FD0B61280800A6
:1000C8000F3083120313FC004730FD00FD0B6A2834
:0A00D800FC0B6A280000000008007D
:0600E20000000000080010
:1000E80083120313DE1B7A2886117B2886155E1B74
:1000F8007F28061180280615DE1A84288610852890
:1001080086145E1A892806108A28061443188E2831
:1001180006168F280612861671208612DE19962872
:100128008611972886155E199B2806119C280615A6
:10013800DE18A0288610A12886145E18A5280610A7
:10014800A62806144318AA280616AB2806128616EF
:1001580071208612431CB2286420B3285D20080051
:1001680083120313F801F9011030FC00710DF80D2A
:10017800F90D7408F8027508031C750FF9020318C5
:10018800CC287408F80775080318750FF9070310C9
:0A019800F00DF10DFC0BBA28080071
:1001A2008312031343105908DE007420431408001D
:1001B200831203135908F2007208F000F20A700861
:1001C200840000080319E628DD2859087202F000AD
:0C01D2000130F002F101031CF1030800F1
:1001DE00831203135908F0005A08F1000130D902B6
:1001EE00031CDA0370087104031908290330FC009C
:1001FE009730FD00FD0B0129FC0B012900000000CA
:04020E00EF280800CD
:1002120083120313DC0105305C02031817295C0802
:100222005B07840020308000DC0A0C295C085B0735
:1002320084008001DC035C085B07DD000A30F40007
:10024200F5015908F0005A08F100B4207808F000CE
:100252007908F1003030F0075D08840070088000F2
:100262000A30F400F5015908F0005A08F100B420F0
:100272007008D9007108DA0000307106031D4329A5
:1002820000307006031D46294829DC031C2908009A
:10029200DF308312031387057F3087055008D900AA
:0802A200DA01EF2087170800C4
:1002AA00831203130716BF3087055008D900DA01F5
:0602BA00EF200717080009
:1002C000E83083120313C0000330C1006430D9004A
:0602D000DA01EF20080036
:1002D60083120313D501D6015008D7005108D80060
:1002E60080305106F00080307002031D7C290030FA
:1002F600500203188A290130D5000030D600500874
:10030600003CD7005108031C013ED801D80257080B
:10031600D9005808DA005208DB0009210630D3005C
:100326000030D4005408003C031D9B295308003CB0
:100336000318B62953085207F20001305302F000A1
:100346000030031C013E5402F1007008520784007D
:100356000008F00072088400700880000130D302A3
:10036600031CD403952952088400203080005508C8
:1003760056040319D429D301D40153085207840023
:100386000008203A031DCB29D30A0319D40AC02931
:100396000130D302031CD4035308520784002D30C6
:0403A60080000800CB
:1003AA00831203130716BF308705DF3087057F30B6
:1003BA0087055008D900DA01EF20071787170800C8
:1003CA00083083120313C0000730C1006430D9001B
:0603DA00DA01EF2008002B
:1003E000022A803083120313D000152AC030D000B7
:1003F000152A9430D000152AD430D000152A803028
:10040000D000152A831203135008013A0319F12969
:100410005008023A0319F6295008033A0319F9293A
:100420005008043A0319FC29FF295103F000500831
:10043000F0077008D00043147008DE0074204310E9
:0A0440005208DE0074204314080087
:10044A00710DF80DF90D7408F8027508031C750F83
:10045A00F902F00DF10D0F30FC00710DF80DF90DD8
:10046A007408701C3E2AF8027508031C750FF902FD
:10047A00432AF80775080318750FF907F00DF10DEF
:10048A00FC0B322A70184F2A7408F80775080318EB
:08049A00750FF90700000800CE
:1004A2008312031387167F3087055008D900DA01BB
:0604B200EF20871708008F
:1004B800EF30831203138705BF30870587167F3017
:1004C80087055008D900DA01EF20071787170800B9
:1004D800831203135008D900D9207008D10071087D
:1004E800D2000330D3000030D40080305406F0002E
:1004F800803052067002031D832A510853020318E4
:100508009D2A03305302F0000030031C013E5402C0
:10051800F10070085007F1005308500784000008E4
:10052800F0007108840070088000D30A0319D40A07
:10053800792A03305102F0000030031C013E5202B8
:0C054800F10070085007840080010800DA
:10055400EF30831203138705BF3087055008D90095
:08056400DA01EF20071708007F
:0E056C00831203133E088A003D088200080037
:10057A00CF2A803083120313D000E22AC030D00081
:10058A00E22A9430D000E22AD430D000E22A803025
:10059A00D000E22A831203135008013A0319BE2A33
:1005AA005008023A0319C32A5008033A0319C62A03
:1005BA005008043A0319C92ACC2A5103F0005008FA
:1005CA00F0077008D0007008DE0074204310D301D1
:1005DA0053085207840000080319FB2A53085207DC
:1005EA0084000008D900D120D30AED2A4314080058
:1005FA00E5216430D00055216430D00055216430A3
:08060A00D00055216021080019
:10061200643083120313D000AA226430D000512226
:100622006430D0005521E5216430D0004921643086
:10063200D00049216430D000AA2260216430D00069
:0E0642005122E5216430D000552160210800CE
:10065000043083120313D0000130D1002630D200C1
:10066000BD220430D0000730D1004708D200F0216D
:02067000080080
:10067200831203134708D0004808D1004930D20042
:100682006B214930D0006C220430D0000C30D100F4
:100692002D30D200BD220430D0001230D1004930BA
:0606A200D200BD22080099
:1006A800643083120313D0005C226430D0004921E7
:1006B8006430D00049216430D00051226430D00029
:1006C80055216430D000D521E5216430D0005C226A
:0406D8006021080095
:1006DC00831203137408003A031D7D2B7508003A2E
:1006EC00031D7D2BFF30F0007F30F100D62B8312E1
:1006FC000313FD01F901F8017108700403190034AA
:10070C0071087506FA00FA1BFD09FB01F51F932B06
:10071C00F409F509F40A0319F50AF11F9A2BF009EB
:10072C00F109F00A0319F10A71087504FA00FA1BB1
:10073C00AF2B25227B18C22BFD1F0034F009F109C9
:10074C00F00A0319F10AF809F909F80A0319F90A68
:10075C000034F51FBE2BF11BBA2B7108F900700881
:10076C00F800F101F001A22BF101F001F00A0034C4
:10077C00F109F009FB0A9F2BF80A0319F90A74080E
:10078C007802031DA22B75087902031DA22BF90117
:10079C00F801F00A0319F10AF11FA22B0000FF3433
:0207AC00080043
:1007AE00E521C4013A08F000F101F00DF10D7010D1
:1007BE0002307007F20071080318013EF30080301A
:1007CE00F000803073067002031DEF2B7208440296
:1007DE000318F62B6430D000AA22C40AD92B643039
:1007EE00D00049216430D00049216430D000492125
:0407FE00602108006E
:1008020083120313FB01FA01F9018030F800F10CA5
:10081200F00C031C152C7408F90775080318750FE2
:10082200FA070318FB0A0310F01F1D2C7408FA07BD
:1008320075080318750FFB07FB0CFA0CF90CF80C82
:10084200031C082C7B08F3007A08F2007908F100F7
:060852007808F000080028
:10085800B6228A110A128000840ABD0A0319BE0A48
:08086800F003031D2C2C080015
:10087000C730831203139F054708F000F00D701076
:10088000F00D7010F00D701070089F041F151F1DE3
:100890004A2C472C1E08F100F00183161E08F004B4
:0608A0000030F104080025
:1008A600831203138F018E010830970001309000E8
:1008B60083160C15073083129600D0309500080079
:1008C6004130831203139F00CE3083169F000330FE
:0408D6008500080091
:1008DA008316031386120612061086100611861155
:1008EA0083128612061286110611861006106420DB
:1008FA0064206420861406148616712086126420E9
:10090A00861671208612642086167120861264204B
:10091A0006108616712086126420861671208612A9
:10092A008610861586167120861264208611061492
:10093A008616712086120610861671208612642089
:10094A008616712086120614861671208612642075
:10095A000610861671208612861506158614061448
:0C096A00861671208612642043140800D9
:100976000530831603138100F030831281000B11BA
:040986008B160800C4
:10098A000626831603138701C03083128700FF30BF
:10099A0083168800831288016324BB2453246D24A0
:1009AA000C30DE0074200130DE0074208B170B1728
:1009BA00C701382470088312BF000030F100643088
:1009CA00F4000030F5000124F230F400F5016E2342
:1009DA003230F0077008BF0032307002C500C6011D
:1009EA00031CC6034508F0004608F1000A30F4006B
:1009FA000030F50001246430F4000030F5006E2365
:100A0A007008143CA5004508F000F1016430F400B8
:100A1A000030F50001246430F4000030F5006E2344
:100A2A007008963EC2003708A03E840038080006C7
:100A3A0003192A2D3708A03E84000008C70028237E
:100A4A003708A03E84000008B8003F08C700C80164
:100A5A003923081D932D3230D9000030DA00EF20F7
:100A6A003A08250203184B2DB90A0130BA00390891
:100A7A00033C03184B2D0130DE0074203708A03EDA
:100A8A0084000008C70028230130B9003908D000C3
:100A9A003A08D1003708A03E84000008D200F021AD
:100AAA003708A03E84000008413A031D5D2D5423F7
:100ABA003708A03E84000008463A031D652D092325
:100ACA003708A03E840000080A3A031D792DD7236F
:100ADA000130BA00B90A3908033C0318792D0130EC
:100AEA00DE0074200130B9003708A03E84000008F7
:100AFA00203A031D812D03203708A03E84000008F8
:100B0A000A3A03198A2DFD22BA0AB701081D8E2D49
:100B1A008B2D3230D9000030DA00EF20081D962DD7
:100B2A003714881C992DB714081C9C2D3715881F5B
:100B3A009F2DB715881EA22D3716081EA52DB7168C
:0A0B4A00081FA82DB701DD2CA92D0E
:100C0C0025308400133083120313F000EF30BD0045
:100C1C000530BE002C24A03084004030F000AF30F2
:100C2C00BD000530BE002C24383084000330F000A9
:0C0C3C000230BD000630BE002C24080071
:100B5E0020340A34213421342134213421342134F7
:100B6E0021342134213421342134213421342134CF
:100B7E0021342134213421342134213421342134BF
:100B8E0049342134533421344A34573454342134C3
:100B9E00413421344B345534453421344F345A3496
:100BAE00423421344C3456344834213452342134B6
:100BBE00433421344D345834443421344E34593472
:100BCE0046342134503421344734213451342134C5
:020BDE001434CD
:0E0BE00043346834613472343A3420340034C3
:0E0BEE00533469347A3465343A342034003498
:020BFC000134C2
:020BFE000034C1
:020C00000034BE
:020C02000034BC
:020C04000034BA
:020C06000134B7
:020C08000134B5
:02400E004A2F37
:00000001FF
