:02000000E22CF0
:10000800FF00030E8301C8000A08C9008A017008AE
:10001800A5007108A4007208A3007308A200740860
:10002800A1000C1D3E284708031927284308F000A3
:10003800F1017008960042089500C7010930970041
:100048008F018E013C284208403CF3004308031C02
:10005800013E9C3CF4007408F000F1017008960021
:1000680073089500083097000130C7008F018E0192
:10007800FB308C052508F0002408F1002308F20065
:100088002208F3002108F40049088A00480E83007A
:06009800FF0E7F0E0900BF
:0E009E00213083120313FD00FD0B53280800D0
:1000AC000F3083120313FC004730FD00FD0B5C285E
:0A00BC00FC0B5C28000000000800A7
:0600C6000000000008002C
:0800CC00FA1FF21300300800D6
:1000D40083120313DA1B70288611712886155A1BA4
:1000E4007528061176280615DA1A7A2886107B28D0
:1000F40086145A1A7F280610802806144618842865
:10010400061685280612861663208612DA198C28AC
:1001140086118D2886155A199128061192280615DC
:10012400DA1896288610972886145A189B280610E1
:100134009C2806144618A0280616A128061286161E
:1001440063208612461CA8285620A9284F200800A0
:1001540083120313F801F9011030FC00710DF80D3E
:10016400F90D7408F8027508031C750FF9020318D9
:10017400C2287408F80775080318750FF9070310E7
:0A018400F00DF10DFC0BB02808008F
:10018E007B15FB1FD1280130F300F201F101F001C4
:08019E00FA0DF20CFF3008001D
:0E01A600F201F101F001F801F3010030080050
:1001B400FB14FB1FE428FF30F300F200F100F00011
:0801C400FA0DF20CFF300800F7
:1001CC008312031346105508DA006A2046140800FF
:0E01DC008312031345088A00440882000800BD
:1001EA00A0017208031D0A297108F2007008F100C3
:1001FA00F001A0157208031D0A297108F200F10125
:10020A00A01120167208031918292008F302031DE9
:10021A00031C1C290310F21B2029F00DF10DF20D0D
:10022A00F30B10291C290130FC00D32023290230AA
:0E023A00FC00C72023290430FC0066200800C9
:100248007B14FB1F2F29F201FA1FFF30F200F10087
:0A025800F000FA0DF20CFF30080070
:100262007C186729FC1838297C1986293129A001B4
:100272007208031D58297108F2007008F10078080D
:10028200F000F801A0157208031D58297108F20048
:100292007008F100F001A01120167208031D582900
:1002A2007108F200F101A015720803197A292008D9
:1002B200F302031D031C7E290310F21B6729F80DAC
:1002C200F00DF10DF20DF30B5E297E297B1B701CE4
:1002D2008229F81F8229F00A0319F10A0319F20A86
:1002E200031D8229F20CF10CF00CF30A0319862982
:1002F20082290130FC00D32089290230FC00C7206A
:1003020089290430FC00662089290830FC00DA20A3
:0403120000000800DF
:06031600FB15FF3008009A
:10031C0083120313D8010530580203189C2958087E
:10032C005707840020308000D80A912958085707B5
:10033C0084008001D80358085707D9000A30F4000C
:10034C00F5015508F0005608F100AA207808F000D5
:10035C007908F1003030F0075908840070088000EB
:10036C000A30F400F5015508F0005608F100AA20F7
:10037C007008D5007108D60000307106031DC8291D
:10038C0000307006031DCB29CD29D803A129080004
:10039C008312031372087606A000F801F9017308A2
:1003AC007702031CF1297708FD007308F7007D081C
:1003BC00F3007608FD007208F6007D08F20075085F
:1003CC00FD007108F5007D08F1007408FD0070084F
:1003DC00F4007D08F000770803196A2A7208FA0005
:1003EC00F217F61777087302F7000319242A08305E
:1003FC007702031C1A2AF7007408F9007508F40038
:10040C007608F500F60108307702031C1A2AF7006B
:10041C007408F9007508F400F50108307702031C24
:10042C001A2A7A08F2006A2A77080319242A031078
:10043C00F60CF50CF40CF90CF70B1D2AA01F312A45
:10044C00F909F409F509F609F90A0319F40A03196B
:10045C00F50A0319F60A7908F80774080318740FDB
:10046C00F00775080318750FF10776080318760F57
:10047C00F207A01B4A2A031C5A2AF20CF10CF00CAE
:10048C00F80CF30F5A2A662A03185E2AF809F009A9
:10049C00F109F209F80A0319F00A0319F10A031910
:1004AC00F20A8030FA06622A0130FC0031216C2AF3
:1004BC000230FC0031216C2A0430FC00F5206C2A3F
:1004CC000830FC00DA206C2A0030FC000000080028
:1004DC0083120313FB01FC01FA0173080319AD2A03
:1004EC00F2178E30F302F31B7E2A03197E2AB02AF0
:1004FC00F309F30A08307302031C932AF300F10D7D
:10050C007208F100F20108307302031C932AF10DFA
:10051C00F1017308031D03109B2A730803199B2A0E
:10052C000310F20CF10CF30B962A7B1B711CA52A01
:10053C00031CA52AF10A0319F20AF21BBC2AFA1FA2
:10054C00BF2AF209F109F10A0319F20ABF2AF201D2
:10055C00F101BF2A7B14FB1FC22AF201FA1FC22A27
:10056C00FF30F200F100FA0DF20CC22A0130FC004F
:10057C00C42A0030FC00C42AFF30FC00FC0803191C
:0E058C00C82A24217108F0007208F10008004E
:10059A00831203137008F8007108F000F101F201E8
:1005AA00F301FB01FC019630F300FA017008F10037
:0C05BA007808F000F801F201F5200800BC
:1005C60083120313D101D2014C08D3004D08D40085
:1005D60080304D06F00080307002031DF42A003092
:1005E6004C020318022B0130D1000030D2004C0817
:1005F600003CD3004D08031C013ED401D40253082D
:10060600D5005408D6004E08D7008E210630CF00FC
:100616000030D0005008003C031D132B4F08003C4F
:1006260003182E2B4F084E07F20001304F02F00040
:100636000030031C013E5002F10070084E07840092
:100646000008F00072088400700880000130CF02B4
:10065600031CD0030D2B4E08840020308000510867
:10066600520403194C2BCF01D0014F084E078400CA
:100676000008203A031D432BCF0A0319D00A382B52
:100686000130CF02031CD0034F084E0784002D30E3
:0406960080000800D8
:10069A005F2B803083120313CC00722BC030CC0046
:1006AA00722B9430CC00722BD430CC00722B803059
:1006BA00CC00722B831203134C08013A03194E2BF8
:1006CA004C08023A0319532B4C08033A0319562BC8
:1006DA004C08043A0319592B5C2B4D03F0004C08C3
:1006EA00F0077008CC007008DA006A204610CF01C3
:1006FA004F084E078400000803198B2B4F084E073A
:10070A0084000008D500E620CF0A7D2B4614080095
:10071A00831203137408003A031DA82B7508003AC4
:10072A00031DA82B7608003A031DA82B7708003A68
:10073A00031DA82BFF30F000FF30F1007F30F200DC
:10074A00FF30F300432C8312031377080319372C65
:10075A00730803193A2C720876068039FA00F217E0
:10076A00F617A0017208F8007108FC007008FD0075
:10077A007408FD027508031C750FFC027608031C39
:10078A00760FF802F801FC01FD01031CD32B0310BC
:10079A00F20CF10CF00CF80C0130A0007708F3020F
:1007AA00031CDD2B7E302007F30703183D2CE22BB8
:1007BA007E302007F307031C402C1830FA07FD0D82
:1007CA00FC0DF80DF00DF10DF20DA00D7408F002FC
:1007DA007508031C750FF1027608031C760FF202E6
:1007EA00760DA004201CFB2B7D14062C7408F00740
:1007FA0075080318750FF10776080318760AF207C9
:10080A007D10FA031F307A05031DE42B7B1B7D1C28
:10081A002D2C0310F00DF10DF20DA00D7408F0024D
:10082A007508031C750FF1027608031C760FF20295
:10083A00760D20040139FD070318FC0A0319F80A8A
:10084A00031D2D2CF80CFC0CFD0CF30A03193D2C8E
:10085A00FA1FF8137808F2007C08F1007D08F0000E
:10086A000030422C01308B21422C0230D320422C02
:0E087A000430DA20422C0830C72000000800AD
:10088800831203131F151F1D4A2C472C1E08F10045
:0E089800F00183161E08F0040030F104080081
:1008A60083120313FB01FA01F9018030F800F10C01
:1008B600F00C031C672C7408F90775080318750FEC
:1008C600FA070318FB0A0310F01F6F2C7408FA07C7
:1008D60075080318750FFB07FB0CFA0CF90CF80CDE
:1008E600031C5A2C7B08F3007A08F2007908F10001
:0608F6007808F000080084
:1008FC00EE208A110A128000840AC40A0319C50A60
:08090C00F003031D7E2C08001E
:10091400831603138612061206108610061186111A
:1009240083128612061286110611861006105620AE
:1009340056205620861406148616632086125620E6
:100944008616632086125620861663208612562049
:100954000610861663208612562086166320861299
:100964008610861586166320861256208611061474
:100974008616632086120610861663208612562079
:100984008616632086120614861663208612562065
:10099400061086166320861286150615861406141C
:0C09A400861663208612562046140800B8
:1009B0004130831203139F00CE3083169F00013015
:0409C00085000800A6
:1009C4003F3083120313A6000630A7005B30A80053
:1009D4004F30A9006630AA006D30AB007D30AC000A
:1009E4000730AD007F30AE006F30AF006130B00033
:1009F4006E30B1006730B2006C30B3006530B400C3
:100A04003A30B5002030B600B7018316870183124F
:100A140087018316880183128801D8240830831241
:100A240085008F018E010130C70008309700013026
:100A34009000C0308B0083160C150730831296008B
:100A4400D03095008A240130DA006A200C30DA00B4
:100A54006A20442470088312CA007108CB004A0833
:100A6400B8004B08B9004A08F0004B08F100053003
:100A7400F4000030F5005324FF30F4000330F50097
:100A8400AA207008C1007008263E8400000888006F
:100A94004A08F0004B08F100F10CF00CF113F10CD2
:100AA400F00CF1137008B8007108B9001930F400A3
:100AB4000030F5005324CD223330F4003330F500F8
:100AC4002330F6008030F7008D230030F40000302E
:100AD400F5007A30F6008830F700CE216E227008D7
:100AE400C2007108C30071080D3C031D7B2D700802
:100AF400AC3C0318812DAC30C2000D30C300033070
:100B04004302031D872DE830420203188D2DE8307F
:100B1400C2000330C3004208CC004308CD003A3081
:100B2400CE00E3220130CC000130CD003030CE00C5
:100B34004D230130CC000830CD003A30CE004D2397
:040B44002B2DA32D85
:02400E004A2F37
:00000001FF
