:02000000782B5B
:10000800FF00030E8301E8000A08E7008A01700870
:10001800A2007108A1007208A0000B1D1828023068
:1000280087060B11F03081008C1C1D2808308706CC
:100038008C100C1D4628660803192F286A08F00042
:10004800F1017008960069089500E60109309700EB
:100058008F018E0144286908403CF3006A08031C9C
:10006800013E9C3CF4007408F000F1017008960011
:1000780073089500083097000130E6008F018E0163
:10008800FB308C052208F0002108F1002008F2005E
:0E00980067088A00680E8300FF0E7F0E0900C5
:1000A600831603132108F0002208F1000130A10293
:1000B600031CA2037008710403196C280330FC00AA
:1000C6009730FD00FD0B6528FC0B6528000000003D
:0400D60053280800A3
:0E00DA00213083120313FD00FD0B7128080076
:1000E8000F3083120313FC004730FD00FD0B7A2804
:0A00F800FC0B7A280000000008004D
:06010200000000000800EF
:100108008312031387167F30870583162008A10002
:0A011800A20153208312871708008C
:10012200DF308312031387057F308705831620088B
:0C013200A100A2015320831287170800CF
:10013E00831203130716BF308705DF3087057F3024
:10014E00870583162008A100A201532083120717EA
:04015E0087170800F7
:10016200831203130716BF30870583162008A100E8
:0A017200A2015320831207170800B2
:10017C00831203130716BF30870587167F30870558
:10018C0083162008A100A20153208312871707179A
:02019C00080059
:10019E00E83083120313E9000330EA00643083165B
:0A01AE00A1000030A2005320080059
:1001B800EF30831203138705BF30870587167F301A
:1001C800870583162008A100A20153208312071770
:0401D800871708007D
:1001DC0083160313A01BF52883128611F7288312AC
:1001EC0086158316201BFD2883120611FF28831207
:1001FC0006158316A01A0529831286100729831267
:10020C0086148316201A0D29831206100F298312C7
:10021C0006146E1813290616142906128616812048
:10022C0086128316A0191D29831286111F29831289
:10023C008615831620192529831206112729831266
:10024C0006158316A0182D29831286102F298312C8
:10025C008614831620183529831206103729831229
:10026C0006146E183B2906163C29061286168120A8
:0E027C0086126E1C4329742044296D20080050
:10028A00083083120313E9000730EA00643083164A
:0A029A00A1000030A200532008006C
:1002A400EF30831203138705BF30870583162008B8
:0C02B400A100A2015320831207170800CC
:0E02C000831203136D088A006C088200080088
:1002CE008312031323088316A000522123088316DA
:1002DE00A000842023088316A000912023088316F3
:1002EE00A00091204521831223088316A000B1207F
:1002FE0023088316A000B12023088316A0008420B3
:10030E0023088316A000842023088316A0009120C2
:0A031E0023088316A00052210800F6
:100328008312031323088316A0005221230883167F
:10033800A000842023088316A000B1204521831241
:1003480023088316A000912023088316A00091207B
:10035800CF20831223088316A00052212308831676
:0E036800A000842023088316A000B120080006
:100376000530831603138100F030831281000B11C0
:040386008B160800CA
:10038A00831203136E106F088316A000EE206E14FA
:02039A00080059
:10039C008312031323088316A0005221230883160B
:1003AC00A000842023088316A000B12045218312CD
:1003BC0023088316A0009120CF20831223088316D4
:1003CC00A000B12023088316A000912023088316D7
:0E03DC00A000842023088316A000B120080092
:1003EA008312031323088316A0008420230883168C
:1003FA00A000B12023088316A000522123088316E7
:10040A00A00052214521831223088316A0009120BF
:10041A0023088316A0009120CF2083122308831675
:10042A00A000B12023088316A000B1202308831658
:0E043A00A000522123088316A0008420080091
:100448008312031323088316A000BE2045218312BC
:1004580023088316A000912023088316A00091206A
:10046800CF20831223088316A000DC2023088316DC
:10047800A000842023088316A00091202308831657
:0E048800A000912023088316A0008420080005
:100496008312031323088316A000842023088316DF
:1004A600A000912023088316A0009120230883161C
:1004B600A000B12023088316A0005221230883162A
:0604C600A00084200800E4
:1004CC0045218312EB018030F0008030003A70023D
:1004DC00031D722A26306B0203187A2A230883160E
:1004EC00A0005221EB0A692A23088316A000912050
:0C04FC0023088316A0009120CF200800E8
:10050800831203138F018E01083097000130900089
:1005180083160C15073083129600D030950008001A
:100528004521831223088316A000B12023088316CF
:08053800A000B120CF20080053
:100540008312031323088316A000B1202308831607
:10055000A000842023088316A0008420230883168B
:10056000A000912023088316A000B1202308831641
:10057000A000912023088316A0005221230883168F
:10058000A000522123088316A0008420230883168C
:06059000A000B1200800EC
:100596008312031323088316A000DC202308831686
:1005A600A000912023088316A0009120230883161B
:1005B600A000842023088316A000B12023088316F8
:1005C600A0009F204521831223088316A000DC206B
:0405D600CF2008002A
:1005DA00C730831203139F056F08F000F00D7010E7
:1005EA00F00D7010F00D701070089F041F151F1D7C
:1005FA00FF2AFC2A1E08F100F00183161E08F004E7
:06060A000030F1040800BD
:100610004130831203139F00CE3083169F000330B6
:040620008500080049
:1006240006308312031392003F3083169200831224
:080634008C1083168C140800E1
:10063C0083160313861206120610861006118611F5
:10064C00831286120612861106118610061074206B
:10065C007420742086140614861681208612742049
:10066C0086168120861274208616812086127420AC
:10067C00061086168120861274208616812086121A
:10068C008610861586168120861274208611061413
:10069C0086168120861206108616812086127420FA
:1006AC0086168120861206148616812086127420E6
:1006BC0006108616812086128615061586140614D9
:0C06CC0086168120861274206E1408002F
:1006D80060218A110A128000840AEC0A0319ED0AC3
:0806E800F003031D6C2B080058
:1006F000BE24831603138701C030831287000823AA
:10070000FF308800BB21122384221E230C30831665
:10071000A000EE2001308316A000EE208B170B17EF
:10072000EF01ED2270088312A30040300805F100AC
:100730007108403A031D3A2C8230FC00DD30FD0088
:10074000FD0BA02BFC0BA02B000000002508143A89
:10075000031DB02BC0308316A000EE206622DC2BD8
:100760000030003A031DB72B283083122506031DE5
:10077000BF2B94308316A000EE206622DC2B0030C5
:10078000003A031DC62B3C3083122506031DCE2BD9
:10079000D4308316A000EE206622DC2B0030003A15
:1007A000031DD52B503083122506031DDC2B013091
:1007B0008316A000EE20662283122408263E8400C1
:1007C0000008EF00C521A50A2408263E8400000881
:1007D000613A031DEC2BCB2283122408263E8400B1
:1007E0000008623A031DF52BA0222408263E84004F
:1007F0000008653A031DFD2B94212408263E840041
:100800000008663A031D052CCE212408263E8400EC
:100810000008683A031D0D2C67212408263E840039
:100820000008693A031D152CF5212408263E840092
:1008300000086B3A031D1D2C24222408263E840048
:1008400000086C3A031D252C4B22A4019422403051
:1008500083120805F1007108403A031D302C272C43
:100860008230FC00DD30FD00FD0B342CFC0B342C01
:100870000000000001300805F1007108013A031D75
:10088000422C241402300805F1007108023A031DBD
:100890004A2CA41404300805F1007108043A031D21
:1008A000522C241508300805F1007108083A031D80
:1008B0005A2CA41510300805F1007108103A031DD8
:1008C000622C241620300805F1007108203A031D1F
:1008D0006A2CA41680300805F1007108803A031DC7
:0808E000722CA401902B732C73
:10097C0023308400443083120313F0007930EC00F0
:08098C000430ED006C230800AB
:0208F200F434DC
:0208F4000034CE
:0208F6000034CC
:1008F8002034213421342134213421342134313439
:100908002134213421342134213421342134313427
:100918002134213421342134213421342134313417
:1009280069342134733421346A347734743421348B
:10093800613421346B347534653421346F347A343E
:10094800623421346C34763468342134723421347E
:10095800633421346D347834643421346E3479341A
:1009680066342134703421346734213471342134AD
:02097800013448
:02400E004A2F37
:00000001FF
