:02000000292CA9
:10000800FF00030E8301C5000A08C6008A017008B4
:10001800AB007108AA007208A9007308A800740848
:10002800A7007508A6007808A5007908A4007A0832
:10003800A3007B08A2007C08A1007D08A0000B1D7E
:10004800472802308706083087060B1132304802ED
:10005800F300F401031CF4030430F2007308F00009
:100068007408F100720803193E28F00DF10D7010A4
:10007800FF3E3728CD30F4000030F500E22270084A
:10008800E83E8100BC0A3C08FF3A031D4C28BE0A22
:100098000C1D75282C0803195E284408F000F1018E
:1000A8007008960043089500AC01093097008F014D
:1000B8008E0173284308403CF3004408031C013EAA
:1000C8009C3CF4007408F000F10170089600730875
:1000D8009500083097000130AC008F018E01FB308D
:1000E8008C052B08F0002A08F1002908F2002808DE
:1000F800F3002708F4002608F5002508F80024086E
:10010800F9002308FA002208FB002108FC00200857
:10011800FD0046088A00450E8300FF0E7F0E090089
:06012800000000000800C9
:0E012E00213083120313FD00FD0B9B280800F7
:10013C000F3083120313FC004730FD00FD0BA42885
:0A014C00FC0BA428000000000800CE
:1001560083120313E01BB1288611B2288615601B93
:10016600B6280611B7280615E01ABB288610BC2843
:100176008614601AC0280610C12806144718C52818
:100186000616C6280612861694208612E019CD2871
:100196008611CE2886156019D2280611D328061591
:1001A600E018D7288610D82886146018DC28061090
:1001B600DD2806144718E1280616E22806128616D8
:1001C60094208612471CE9289E20EA2897200800DA
:1001D60083120313F801F9011030FC00710DF80DBC
:1001E600F90D7408F8027508031C750FF902031857
:1001F60003297408F80775080318750FF907031023
:0A020600F00DF10DFC0BF1280800CB
:1002100083120313DE0105305E02031816295E08FF
:100220005D07840020308000DE0A0B295E085D0730
:1002300084008001DE035E085D07DF000A30F40001
:10024000F5015B08F0005C08F100EB207808F00095
:100250007908F1003030F0075F08840070088000F2
:100260000A30F400F5015B08F0005C08F100EB20B7
:100270007008DB007108DC0000307106031D4229A4
:1002800000307006031D45294729DE031B2908009D
:10029000831203135B08F2007208F000F20A700880
:1002A00084000008031955294C295B087202F000EC
:0C02B0000130F002F101031CF103080012
:1002BC008312031347105B08E000AB2047140800BF
:1002CC0083120313D701D8015208D9005308DA005E
:1002DC0080305306F00080307002031D7729003007
:1002EC005202031885290130D7000030D80052087B
:1002FC00003CD9005308031C013EDA01DA0259080C
:10030C00DB005A08DC005408DD0008210630D5005B
:10031C000030D6005608003C031D96295508003CB9
:10032C000318B12955085407F20001305502F000AA
:10033C000030031C013E5602F10070085407840083
:10034C000008F00072088400700880000130D502AB
:10035C00031CD603902954088400203080005708D1
:10036C0058040319CF29D501D60155085407840028
:10037C000008203A031DC629D50A0319D60ABB2941
:10038C000130D502031CD6035508540784002D30C8
:04039C0080000800D5
:1003A000831203135208DB0048217008D300710840
:1003B000D4000330D5000030D60080305606F0005F
:1003C000803054067002031DE729530855020318B4
:1003D000012A03305502F0000030031C013E560292
:1003E000F10070085207F100550852078400000818
:1003F000F0007108840070088000D50A0319D60A3D
:10040000DD2903305302F0000030031C013E54028A
:0C041000F1007008520784008001080011
:10041C00202A803083120313D200332AC030D2003A
:10042C00332A9430D200332AD430D200332A80308D
:10043C00D200332A831203135208013A03190F2AEC
:10044C005208023A0319142A5208033A0319172ABC
:10045C005208043A03191A2A1D2A5303F0005208B1
:10046C00F0077008D2007008E000AB204710D501EF
:10047C00550854078400000803194C2A55085407E2
:10048C0084000008DB005E21D50A3E2A47140800D0
:0E049C008312031342088A0041088200080000
:1004AA00710DF80DF90D7408F8027508031C750F23
:1004BA00F902F00DF10D0F30FC00710DF80DF90D78
:1004CA007408701C6E2AF8027508031C750FF9026D
:1004DA00732AF80775080318750FF907F00DF10D5F
:1004EA00FC0B622A70187F2A7408F807750803182B
:0804FA00750FF907000008006E
:10050200932A803083120313D200A62AC030D2006D
:10051200A62A9430D200A62AD430D200A62A80304D
:10052200D200A62A831203135208013A0319822A1F
:100532005208023A0319872A5208033A03198A2AEF
:100542005208043A03198D2A902A5303F0005208E4
:10055200F0077008D20047147008E000AB20471083
:0A0562005408E000AB204714080025
:10056C00831203134908D2004A08D3004B30D4003D
:10057C0066214B30D200D0210430D2000C30D30095
:10058C002D30D4000E220430D2001230D3004B3068
:06059C00D4000E2208004D
:1005A200043083120313D2000130D3003530D4005B
:1005B2000E220430D2000730D3004908D400812231
:0205C20008002F
:1005C400831203137408003A031DF12A7508003AD4
:1005D400031DF12AFF30F0007F30F1004A2B831213
:1005E4000313FD01F901F8017108700403190034C3
:1005F40071087506FA00FA1BFD09FB01F51F072BAC
:10060400F409F509F40A0319F50AF11F0E2BF00990
:10061400F109F00A0319F10A71087504FA00FA1BCA
:10062400232B55227B18362BFD1F0034F009F109CA
:10063400F00A0319F10AF809F909F80A0319F90A81
:100644000034F51F322BF11B2E2B7108F9007008B2
:10065400F800F101F001162BF101F001F00A003469
:10066400F109F009FB0A132BF80A0319F90A7408B3
:100674007802031D162B75087902031D162BF90148
:10068400F801F00A0319F10AF11F162B0000FF34D8
:0206940008005C
:1006960083120313FB01FA01F9018030F800F10C13
:1006A600F00C031C5F2B7408F90775080318750F07
:1006B600FA070318FB0A0310F01F672B7408FA07E2
:1006C60075080318750FFB07FB0CFA0CF90CF80CF0
:1006D600031C522B7B08F3007A08F2007908F1001C
:0606E6007808F000080096
:1006EC00C730831203139F054908F000F00D7010FA
:1006FC00F00D7010F00D701070089F041F151F1D69
:10070C00882B852B1E08F100F00183161E08F004BF
:06071C000030F1040800AA
:10072200831603138612061206108610061186110E
:1007320083128612061286110611861006109E205A
:100742009E209E20861406148616942086129E20D1
:100752008616942086129E208616942086129E204B
:1007620006108616942086129E20861694208612E3
:10077200861086158616942086129E2086110614EF
:1007820086169420861206108616942086129E20C3
:1007920086169420861206148616942086129E20AF
:1007A20006108616942086128615061586140614DF
:0C07B2008616942086129E204714080032
:1007BE00831203138F018E010830970001309000D1
:1007CE0083160C15073083129600D0309500080062
:1007DE000530831603138100F030831281000B1154
:0407EE008B1608005E
:1007F2004130831203139F00CE3083169F000330D3
:040802008500080065
:10080600831203134908F0004A08F1000130C902B7
:10081600031CCA037008710403191C2C0330FC0066
:100826009730FD00FD0B152CFC0B152C000000006D
:04083600032C080087
:10083A004E228A110A128000840AC10A0319C20AC6
:08084A00F003031D1D2C080042
:100852001225831603138701C03083128700FF30ED
:100862008316880083128801F923EF23DF23912363
:100872000C30E000AB200130E000AB208B170B17EF
:10088200C901762370088312C8000030F100643079
:10089200F4000030F5004B23F230F400F501E222BF
:1008A2007008323EC8004008A03E84003F0800069F
:1008B2000319662C4008A03E84000008C900D1221A
:1008C2004008A03E84000008BF004808C900CA01D1
:1008D200B62240300805F1007108403A031DA02CF1
:1008E2003230C9000030CA0003243D08143C03180A
:1008F2008C2CB40A0130BD003408033C03188C2C44
:100902000130E000AB204008A03E84000008C9008E
:10091200D1220130B4003408D2003D08D30040088F
:10092200A03E84000008D4008122BD0AC001081F35
:100932009B2C982C3230C9000030CA000324081CBA
:10094200A32C4014881CA62CC014081DA92C4015E9
:10095200881DAC2CC015081EAF2C4016881EB22C68
:0C096200C016881FB52CC001412CB62C1B
:100A24002C308400153083120313F000FC30C10015
:100A34000430C2001D24A030840040308312F00032
:0C0A4400BC30C1000430C2001D240800BA
:1009780020342134213421342134213421342134C8
:1009880021342134213421342134213421342134B7
:1009980021342134213421342134213421342134A7
:1009A80049342134533421344A34573454342134AB
:1009B800413421344B345534453421344F345A347E
:1009C800423421344C34563448342134523421349E
:1009D800433421344D345834443421344E3459345A
:1009E80046342134503421344734213451342134AD
:0209F8000134C8
:0E09FA00533469347A3465343A34203400348E
:020A08000134B7
:0E0A0A0043346834613472343A34203400349A
:020A18000034A8
:020A1A000134A5
:020A1C000034A4
:020A1E000034A2
:020A20000034A0
:02400E004A2F37
:00000001FF
