:02000000FD29D8
:10000800FF00030E8301BD000A08BC008A017008C6
:10001800A0000B1D1428043087060B113B08810033
:100028002008F0003C088A003D0E8300FF0E7F0E7A
:020038000900BD
:0E003A00213083120313FD00FD0B2128080066
:100048000F3083120313FC004730FD00FD0B2A28F4
:0A005800FC0B2A280000000008003D
:0600620000000000080090
:1000680083120313CC1B3A2886113B2886154C1B98
:100078003F28061140280615CC1A44288610452822
:1000880086144C1A492806104A2806142F184E2898
:1000980006164F280612861631208612CC195628C5
:1000A8008611572886154C195B2806115C280615F9
:1000B800CC1860288610612886144C18652806100C
:1000C800662806142F186A2806166B280612861644
:1000D800312086122F1C7228242073281D20080026
:1000E80083120313F801F9011030FC00710DF80DAB
:1000F800F90D7408F8027508031C750FF902031846
:100108008C287408F80775080318750FF907031089
:0A011800F00DF10DFC0B7A28080031
:1001220083120313CA0105304A0203189F284A08A2
:100132004907840020308000CA0A94284A084907E7
:1001420084008001CA034A084907CB000A30F40040
:10015200F5014708F0004808F10074207808F00023
:100162007908F1003030F0074B08840070088000F5
:100172000A30F400F5014708F0004808F100742045
:100182007008C7007108C80000307106031DCB2833
:1001920000307006031DCE28D028CA03A428080008
:1001A200831203132F104708CC0034202F140800A9
:0E01B2008312031333088A003208820008000B
:1001C000F228803083120313BE000529C030BE0020
:1001D00005299430BE000529D430BE0005298030A1
:1001E000BE000529831203133E08013A0319E128D2
:1001F0003E08023A0319E6283E08033A0319E928A3
:100200003E08043A0319EC28EF283F03F0003E08AB
:10021000F0077008BE007008CC0034202F10C10118
:10022000410840078400000803191E2941084007BF
:1002300084000008C700D120C10A10292F1408002B
:1002400083120313C301C4013E08C5003F08C60062
:1002500080303F06F00080307002031D31290030ED
:100260003E0203183F290130C3000030C4003E089D
:10027000003CC5003F08031C013EC601C6024508FC
:10028000C7004608C8004008C90091200630C100D8
:100290000030C2004208003C031D50294108003CC8
:1002A00003186B2941084007F20001304102F000B9
:1002B0000030031C013E4202F10070084007840038
:1002C0000008F00072088400700880000130C1024C
:1002D000031CC2034A2940088400203080004308E0
:1002E000440403198929C101C2014108400784005F
:1002F0000008203A031D8029C10A0319C20A752982
:100300000130C102031CC2034108400784002D30A4
:040310008000080061
:10031400831203131F151F1D90298D291E08F10038
:0E032400F00183161E08F0040030F1040800FA
:100332004130831203139F00CE3083169F00013099
:04034200850008002A
:10034600D9208A110A128000840AB20A0319B30A54
:08035600F003031DA3290800B8
:10035E0083160313861206120610861006118611D6
:10036E00831286120612861106118610061024209C
:10037E00242024208614061486163120861224206A
:10038E0086163120861224208616312086122420CD
:10039E0006108616312086122420861631208612EB
:1003AE008610861586163120861224208611061494
:1003BE0086163120861206108616312086122420CB
:1003CE0086163120861206148616312086122420B7
:1003DE00061086163120861286150615861406140A
:0C03EE0086163120861224202F140800EF
:1003FA00543083120313A1006930A2006D30A300A8
:10040A006530A4007230A5002030A6005230A70043
:10041A006530A8006C30A9006F30AA006130AB00CB
:10042A006430AC003A30AD00AE0183168701831206
:10043A0087019921AF210130CC0034200C30CC0047
:10044A003420053083168100831281010B118B162B
:10045A008B178A2170088312B0007108B1007008E6
:10046A00F2007108F300F30CF20CF313F30CF20C24
:10047A00F3137208BB007208BE00BF013430C0001B
:10048A0020210130BE000130BF002130C000E02031
:10049A000230BE000130BF003430C000E020063018
:1004AA00FB001330FC00AD30FD00FD0B5A2AFC0B9B
:0E04BA005A2AFB0B5A2A000000002E2A632A41
:02400E004A2F37
:00000001FF
